:10000000ECC100001BC2000019C2000017C20000B2
:1000100015C2000013C2000011C200000FC2000090
:100020000DC200000C94200D0C944A0D0C94740D1C
:1000300005C200000C94E72101C20000FFC10000CE
:10004000FDC10000FBC10000F9C10000F7C10000C4
:10005000F5C10000F3C10000F1C100000C94851946
:10006000EDC100000C94EC1C0C94221DE7C10000B3
:10007000E5C10000E3C10000E1C10000DFC10000F4
:10008000DDC10000DBC10000D9C10000D7C1000004
:10009000D5C10000D3C10000D1C100000C94A6144A
:1000A000CDC10000CBC10000C9C10000C7C1000024
:1000B000C5C10000C3C10000C1C10000BFC1000034
:1000C000BDC10000BBC10000B9C10000B7C1000044
:1000D000B5C10000B3C10000B1C10000AFC1000054
:1000E000ADC10000AA1AAD1A9C1AA01AA61AE41AE9
:1000F000B11AB51ABB1ABF1AC31AC91ACD1AD11A26
:10010000E41AD71ADB1ADF1A005EBCE2613FDD8316
:10011000C29C7E20A3FD1F419DC3217FFCA2401EE7
:100120005F01E3BD3E6082DC237D9FC1421CFEA0D7
:10013000E1BF5D0380DE3C62BEE0025CDF81633DC7
:100140007C22C09E1D43A1FF4618FAA427799BC5B7
:1001500084DA3866E5BB5907DB856739BAE40658A7
:100160001947A5FB7826C49A653BD987045AB8E697
:10017000A7F91B45C6987A24F8A6441A99C7257B87
:100180003A6486D85B05E7B98CD2306EEDB3510F77
:100190004E10F2AC2F7193CD114FADF3702ECC9267
:1001A000D38D6F31B2EC0E50AFF1134DCE90722C57
:1001B0006D33D18F0C52B0EE326C8ED0530DEFB147
:1001C000F0AE4C1291CF2D73CA947628ABF5174937
:1001D0000856B4EA6937D58B5709EBB536688AD427
:1001E00095CB2977F4AA4816E9B7550B88D6346A17
:1001F0002B7597C94A14F6A8742AC896154BA9F707
:10020000B6E80A54D7896B35566C686B6F73743ACD
:1002100020005465706C6F74613A20004448543279
:1002200032202D20566C686B6F73743D0044485427
:100230003232202D205465706C6F74613D00466130
:10024000696C656420746F20726561642066726FEA
:100250006D204448542073656E736F722100293DF0
:10026000005465706C6F7461205328005254432011
:1002700053796E6368726F6E697A656420746F205B
:1002800050432074696D653D00506F636574207341
:10029000656E7A6F726F763A004E756D4F66536574
:1002A0006E736F72733D0048656C6C6F203A2D2938
:1002B0000000000A0B02090C0D0E080703040100E0
:1002C000000000000000000000000000000000002E
:1002D00000000000000000000000000000121110EB
:1002E000000000000000000000000000000000000E
:1002F000000000000000000102102020080810206B
:1003000040102040800201020108040201010204A1
:100310000810204080804020100804020180040260
:1003200001804020100804020108040201010204B7
:1003300008102040800102040810204080050505B7
:1003400005070508080808020202020A0A0808044C
:10035000040404010101010101010103030303037A
:10036000030303040707070C0C0C0C0C0C0C0C0209
:1003700002020206060606060606060B0B0B0B0B10
:100380000B0B0B000020002300260029002C002F5F
:1003900000320000010000030106010901000022F3
:1003A00000250028002B002E00310034000201003F
:1003B00000050108010B0100002100240027002A8C
:1003C000002D003000330001010000040107010A84
:1003D00001024606BF130918541D11241FBECFEF9A
:1003E000D1E2DEBFCDBF00E00CBF13E0A0E0B2E081
:1003F000E6EAF1E500E00BBF02C007900D92A630DF
:10040000B107D9F725E0A6E0B3E001C01D92A837F7
:10041000B207E1F713E0CAEDD3E000E006C022978F
:100420000109FE010BBF0E94CC24C23DD10780E030
:100430000807A9F70E94981D0C94D128E1CD0895D2
:10044000FC018FE192E0928B818B7683658314822D
:10045000108289E0818381E0828383830895FC0197
:1004600084810895CF93DF93EB0167E0CE010E9472
:10047000F80C91E02F81821390E0892FDF91CF91CA
:100480000895EF92FF920F931F93CF93DF93EC01A8
:100490008B01E42E8D819E810E94330CF12CB801DA
:1004A0008D819E810E94670C882351F0FE1005C04B
:1004B000B801CE01D7DF811104C0F394EF1478F7AF
:1004C00080E0DF91CF911F910F91FF90EF90089501
:1004D000CF92DF92EF92FF920F931F93CF93DF9310
:1004E0001F921F92CDB7DEB76C01F42EE52EFC01F2
:1004F0008581968169837A830E94110B69817A8153
:10050000882311F1F601858196810E940A0C40E052
:100510006EEBF601858196810E94AE0B0F2D1E2D8C
:1005200089E0F82EF601858196810E94EF0BF80193
:1005300081938F01FA94B1F7F601858196810E942B
:10054000110B91E0813009F090E0892F0F900F900E
:10055000DF91CF911F910F91FF90EF90DF90CF909F
:100560000895CF93DF93EA01B3DF882351F068E069
:10057000CE010E94F80C91E02885821390E0892F2B
:1005800001C080E0DF91CF910895EF92FF921F9319
:10059000CF93DF931F921F92CDB7DEB77C01FC0192
:1005A0008581968169837A830E94110B69817A81A2
:1005B000F701858196810E940A0C40E064EBF70107
:1005C000858196810E94AE0BF701858196810E94FC
:1005D000830B182FF701858196810E94110B81E012
:1005E000111180E00F900F90DF91CF911F91FF903C
:1005F000EF900895CF93DF93CDB7DEB729970FB66D
:10060000F894DEBF0FBECDBFFB0120812031C9F0C1
:10061000AE014F5F5F4FA5DF882379F08D818F3367
:1006200051F020F48F3149F489E00CC08F3539F056
:100630008F3739F002C08AE005C080E003C08BE04C
:1006400001C08CE029960FB6F894DEBF0FBECDBF77
:10065000DF91CF910895EF92FF920F931F93CF9365
:10066000DF93CDB7DEB761970FB6F894DEBF0FBE4C
:10067000CDBF8C01FC01858196810E94330CF8016D
:100680001482FF24F394BE01665F7F4FF8018581D9
:1006900096810E94670C8823A1F1BE01665F7F4F9F
:1006A000C801E0DE882379F3F8018081811107C059
:1006B000BE01665F7F4FC80168DF81111FC0AE01B8
:1006C0004F5F5F4FBE01665F7F4FC80101DFF801DA
:1006D000E180BE01665F7F4FC8018CDF8E1518F484
:1006E000F801818105C0BE01665F7F4FC80182DFCE
:1006F000F801818384818F5F8483C5CFF801F08204
:10070000DECF61960FB6F894DEBF0FBECDBFDF918E
:10071000CF911F910F91FF90EF900895CF93DF93AA
:10072000CDB7DEB729970FB6F894DEBF0FBECDBFA9
:10073000AE014F5F5F4FCCDE81E09981911101C026
:1007400080E029960FB6F894DEBF0FBECDBFDF91D3
:10075000CF9108958F929F92AF92BF92CF92DF92E6
:10076000EF92FF920F931F93CF93DF93EC018A01D7
:100770006950633048F4E62FF0E0EE0FFF1FE55FAD
:10078000FD4F8080918004C09EEE892E92E0992ECC
:1007900001151105F9F08B818823E1F08881811121
:1007A00019C00E94CF196B017C01AA2497FCA09468
:1007B000BA2CB801CE01B2DF81111FC00E94CF193F
:1007C000681979098A099B096C157D058E059F05B5
:1007D000A0F4EFCFB401882777FD8095982FDF91A3
:1007E000CF911F910F91FF90EF90DF90CF90BF902E
:1007F000AF909F908F900C94FE19DF91CF911F9135
:100800000F91FF90EF90DF90CF90BF90AF909F90AF
:100810008F900895CF93DF93EC018D819E8101D756
:100820008D819E810E94300C488164E48D819E817F
:1008300095D78A81882339F040E050E06981CE0164
:10084000DF91CF9187CFDF91CF910895FA01208179
:1008500048E0249F90011124818190E0982F8827FF
:10086000990F990F990F282B392BDB018C9180312F
:10087000C1F4678170E08681AB01481B5109CA0150
:100880009695982F8827979587950E947224605196
:100890007109207F53E0220F331F5A95E1F7260F8D
:1008A000371FC9010895EF92FF920F931F93CF93C3
:1008B000DF93CDB7DEB729970FB6F894DEBF0FBE32
:1008C000CDBF8C017B01AE014F5F5F4F4ADE8823B5
:1008D00039F0AE014F5F5F4FB701C801B7DF02C00B
:1008E00080E894EE29960FB6F894DEBF0FBECDBF18
:1008F000DF91CF911F910F91FF90EF900895813874
:1009000024EE92076CF0BC01882777FD8095982F24
:100910000E944B2320E030E040E05CE30C94FF2396
:1009200060E070E08EEF92EC0895BDDFE8CF0F93AA
:100930001F93CF93DF93CDB7DEB728970FB6F89408
:10094000DEBF0FBECDBF8C01462FBE016F5F7F4F54
:1009500098DD882331F0BE016F5F7F4FC801E5DF6E
:1009600004C060E070E08EEF92EC28960FB6F89429
:10097000DEBF0FBECDBFDF91CF911F910F910895C4
:10098000FC0166834783208781E085870895CF93A4
:10099000DF93EC0160E08E810E94E51A61E08E81B8
:1009A0000E941E1B19861A861B861C86DF91CF911A
:1009B0000895DF92EF92FF920F931F93CF93DF93EF
:1009C000EC010E94CF1909851A852B853C8560179B
:1009D00071078207930720F419861A861B861C86E6
:1009E0002D85211111C009851A852B853C85DC01D7
:1009F000CB01801B910BA20BB30B803D9740A1054F
:100A0000B10510F481E07BC01D860E94CF19698773
:100A10007A878B879C871C821B821A821982188294
:100A200061E08E810E941E1B6AEF70E080E090E022
:100A30000E94FE1961E08E810E94E51A60E08E81BD
:100A40000E941E1B64E170E080E090E00E94FE19AD
:100A5000F89461E08E810E941E1B88E290E00E9463
:100A6000241A60E08E810E94E51AF12CD12C81E0DD
:100A7000E12C082F10E08E810E94531B80179107F4
:100A800041F4E39481E090E00E94241A8FEFE81291
:100A9000F2CF8E810E94531B9FEFE916C9F023E02D
:100AA0002F1590F4F0FC10C09D2D96959695969577
:100AB000FE01E90FF11D9081990F908328852E1575
:100AC00010F491609083D394F39495E5F912D0CF0C
:100AD000789427E22D1590F42C8130E048818981AB
:100AE00090E0840F911D4A81840F911D4B81840FEA
:100AF000911D99272817390709F484CF80E0DF91E9
:100B0000CF911F910F91FF90EF90DF900895CF92BA
:100B1000DF92EF92FF920F931F93CF93DF93EC013D
:100B2000162F47DF882309F450C08F818B3031F0B6
:100B300008F44BC08551823078F047C06A8170E07C
:100B400080E090E00E944923112309F443C020E093
:100B500030E040E151E42AC00A81602F6F7770E0F5
:100B600080E090E00E944B2320E030E040E853E436
:100B70000E94FF236B017C016B8170E080E090E0BC
:100B80000E944B239B01AC01C701B6010E94482281
:100B900020E030E040E251E40E94B02207FD90588E
:100BA0001123D9F020E030E040E151E40E94FF231E
:100BB00020E030E040EA50E40E94B02220E030E043
:100BC00040E052E40E94482208C020E030E040ECBF
:100BD0005FE705C09B01AC0102C09B01AC01B901FC
:100BE000CA01DF91CF911F910F91FF90EF90DF909D
:100BF000CF900895CF92DF92EF92FF92CF93DF9341
:100C0000EC01D7DE882379F18F818B3029F158F1FF
:100C10008551823040F5688170E080E090E00E946C
:100C2000492320E030E040E853E40E94FF236B01B9
:100C30007C01698170E080E090E00E944B239B0181
:100C4000AC01C701B6010E94482220E030E040E23A
:100C500051E40E94B0220BC0688170E080E090E017
:100C60000E94492304C060E070E080EC9FE7DF91C0
:100C7000CF91FF90EF90DF90CF900895982F9295AD
:100C80009F702AEF929F800D1124089586E293E0D1
:100C90000C943613EF92FF920F931F93CF93DF9331
:100CA0001F921F92CDB7DEB7062F122F68E670E0B5
:100CB00086E293E049835A830E944913602F86E2BB
:100CC00093E00E94F8124981042FE42E5A81F52EF8
:100CD0008E2D801B811740F4F70161917F0186E220
:100CE00093E00E94F812F4CF86E293E00F900F9009
:100CF000DF91CF911F910F91FF90EF900C94BD1356
:100D0000CF93DF931F92CDB7DEB7498321E0AE01C9
:100D10004F5F5F4FBFDF0F90DF91CF910895CF926C
:100D2000DF92EF92FF920F931F93CF93DF931F9267
:100D3000CDB7DEB76C01562F342FEAE0842F6E2F2B
:100D40000E946624482F440F480F440F430F822F00
:100D50000E946624382F330F380F330F320F802F45
:100D60000E946624182F110F180F110F100F8E2DCF
:100D70000E946624082F000F080F000F0E0D50FD73
:100D8000406851FD306852FD106854FD106453FDF9
:100D9000006857FD08C067E0C6013983B1DF98E0FD
:100DA000F92E398102C08BE0F82E432F6F2DC6013A
:100DB000A7DF61E06F0D412FC601A2DF62E06F0D7A
:100DC000402FC6010F90DF91CF911F910F91FF909F
:100DD000EF90DF90CF9094CF1F93CF93DF93EC01F0
:100DE00068E670E086E293E00E94491360E086E2E4
:100DF00093E00E94F81286E293E00E94BD13182F40
:100E0000811135C047E050E068E670E086E293E08B
:100E10000E94BB1386E293E00E94A9128F772EDF17
:100E2000888386E293E00E94A91228DF898386E204
:100E300093E00E94A9128F7B21DF8A8386E293E0F0
:100E40000E94A9128B8386E293E00E94A91216DF0A
:100E50008C8386E293E00E94A9128F770FDF8D8347
:100E600086E293E00E94A91209DF825E8E83812FC1
:100E7000DF91CF911F910895CF93DF93CDB7DEB768
:100E800027970FB6F894DEBF0FBECDBFCE010196F7
:100E9000A3DF811105C0CE0101960E940C1103C091
:100EA00060E070E0CB0127960FB6F894DEBF0FBE6E
:100EB000CDBFDF91CF910895EF92FF920F931F93D3
:100EC000CF93DF93C62F042FF52E122F68E670E024
:100ED00086E293E00E9449136C2F86E293E00E9421
:100EE000F81286E293E00E94BD13811114C0412FD5
:100EF00068E686E293E00E94B913E02EC02FDF2D52
:100F00008C2F8E19811730F486E293E00E94A9128B
:100F10008993F6CF80E0DF91CF911F910F91FF90E1
:100F2000EF900895CF93DF931F92CDB7DEB721E006
:100F3000AE014F5F5F4FC0DF89810F90DF91CF918E
:100F40000895FF920F931F93CF93DF938C01EB01D2
:100F500068E670E086E293E00E94491360E086E272
:100F600093E00E94F81228813AE0F32E822F6F2D31
:100F70000E946624682F660F680F660F620F86E274
:100F800093E00E94F8122981822F6F2D0E9466241F
:100F9000682F660F680F660F620F86E293E00E946B
:100FA000F8122A81822F6F2D0E946624682F660F07
:100FB000680F660F620F86E293E00E94F8126B8161
:100FC00086E293E00E94F8122C81822F6F2D0E94FE
:100FD0006624682F660F680F660F620F86E293E043
:100FE0000E94F8122D81822F6F2D0E946624682F97
:100FF000660F680F660F620F86E293E00E94F81298
:101000002E812E51822F6F2D0E946624682F660F2D
:10101000680F660F620F86E293E00E94F81286E284
:1010200093E00E94BD13C82F6FE0C8017BDF482FFB
:101030004F776FE0C80164DE8C2FDF91CF911F9155
:101040000F91FF9008950F931F93CF93DF93CDB728
:10105000DEB727970FB6F894DEBF0FBECDBF8C0169
:10106000CB01BA01AE014F5F5F4FBAD7BE016F5FD0
:101070007F4FC80166DF27960FB6F894DEBF0FBE1C
:10108000CDBFDF91CF911F910F910895EF92FF9205
:101090001F93CF93DF931F92CDB7DEB77C01162F3E
:1010A0006EE049833FDF115021E030E0012E01C0A6
:1010B000220F0A94EAF74981442319F0482F422B62
:1010C00003C0422F409548236EE0C7010F90DF9187
:1010D000CF911F91FF90EF9013CE1F93CF93DF938B
:1010E000EC01162F6FE01EDF115041E050E0012EA1
:1010F00001C0440F0A94EAF7982F942339F04095E1
:1011000048236FE0CE01FCDD81E001C080E0DF918B
:10111000CF911F9108950F931F93CF93DF93EC010D
:101120008B016EE0FFDE482F0430110514F044609F
:1011300007C0437E53E0000F111F5A95E1F7402B83
:101140006EE0CE01DF91CF911F910F91D9CDFC01BF
:1011500012828FEF8183108213820895FC018381B4
:10116000882331F0611103C08FEF818308951182CC
:10117000089586E293E00E943F1386E293E00E9486
:10118000BD1391E0811190E0892F0895CF93DF93F3
:10119000EC016A8386E293E00E9436136A81CE01F5
:1011A000E8DF8B83882329F086E293E00E94A9126E
:1011B00088838B8190E0DF91CF910895CF93DF9367
:1011C000EC018B818823A9F089818095862388830F
:1011D0006A8186E293E00E943F13688186E293E091
:1011E0000E94F81286E293E00E94BD13282F30E09F
:1011F00002C020E030E081E090E0232B11F080E09D
:1012000090E0DF91CF91089508950895DC01ED916C
:10121000FC910284F385E02D41E0199581E090E096
:101220000895FC011382128225E132E0318320838C
:101230000895DC01ED91FC910084F185E02D6FEFC4
:101240001994DC01ED91FC910284F385E02D40E0DE
:10125000199461E0F6DF80ED97E00C94241A62E0C7
:10126000F0DF80ED97E00C94241ACF93DF93CDB795
:10127000DEB728970FB6F894DEBF0FBECDBF1D8234
:1012800020E42E8334E13F8334E5388719822A83B2
:1012900020E12B8320E52C83FC012781421710F0ED
:1012A0004FEF420FFC01308550E0FE01E40FF51FC7
:1012B000303121F4243011F4218101C02581260F21
:1012C0002068622F28960FB6F894DEBF0FBECDBF00
:1012D000DF91CF91B6CFFC016581262F2460258355
:1012E0006C60AFCFCF93DF93EC01423018F08C816C
:1012F00088608C834F836887222329F0413019F45A
:101300008C8184608C8364E670E080E090E00E94D1
:10131000FE196C8164FD31C0E881F9810284F38596
:10132000E02D42E063E0CE01199584E991E10E944D
:10133000241AE881F9810284F385E02D42E063E01C
:10134000CE01199586E990E00E94241AE881F9817E
:101350000284F385E02D42E063E0CE01199586E931
:1013600090E00E94241AE881F9810284F385E02D3F
:1013700042E062E0CE01199513C06062CE0161DFE8
:1013800084E991E10E94241A6C816062CE0159DFE8
:1013900086E990E00E94241A6C816062CE0151DFE0
:1013A00086E990E00E94241A6C816062CE0149DFD8
:1013B0008CE390E00E94241A84E08D83CE018BDFC1
:1013C000CE0147DF82E08E8366E0CE013ADFCE01B8
:1013D000DF91CF912ECF21E001C0220F6A95EAF76D
:1013E000DC011C962C931C971A965C934E931997CC
:1013F000ED91FC910084F185E02D60E01994FC01F1
:101400002485222391F081859285009719F461113A
:1014100005C006C0019721F4611102C0258701C0F3
:1014200015866585CF010E96C9CE08950F931F933B
:10143000CF93DF93EC018C01025F1F4F6B85C801D6
:10144000A5DE019751F461E0C80188DE1C8260E0EE
:10145000C801B4DE81E090E002C080E090E0DF915E
:10146000CF911F910F9108958F92AF92CF92EF92EB
:101470000F93CF93DF93CDB7DEB7FC01638714865C
:1014800015861286118681E0982F01C0990F4A9522
:10149000EAF7928B982F01C0990F2A95EAF7938B60
:1014A000982F01C0990F0A95EAF7948B982F01C0E5
:1014B000990FEA94EAF7958B982F01C0990FCA9477
:1014C000EAF7968B982F01C0990FAA94EAF7978BA9
:1014D00001C0880F8A94EAF7808FDF91CF910F9136
:1014E000EF90CF90AF908F9008954F925F926F9250
:1014F0007F928F92AF92CF92EF920F931F93CF93E1
:10150000DF9300D0CDB7DEB73C011B894C885D88E6
:101510002B834A83698385DE85E292E0F301918320
:101520008083C3010E9613DE2B814A816981C3013A
:101530009BDFA201612FC3010F900F900F90DF91ED
:10154000CF911F910F91EF90CF90AF908F907F90A0
:101550006F905F904F903FCFFF920F931F93CF9369
:10156000DF93EC01F62E8C01025F1F4F6A896F2911
:10157000C80124DE6A8960956F21C801DF91CF918F
:101580001F910F91FF901ACE20E030E050E060FFF5
:1015900005C0FC01E20FF31F7589572B66952F5F7D
:1015A0003F4F2430310599F7413011F4FC01448953
:1015B000FC016585652B642BCFCF0F931F93CF93D1
:1015C000DF93EC01142F062F0F70423011F440E02E
:1015D00009C070E084E0759567958A95E1F7CE01C2
:1015E000D3DF412F602FCE01DF91CF911F910F915B
:1015F000CBCF0F931F93CF93DF9300D0CDB7DEB740
:101600008C012B834A83698311DF2B814A81698195
:10161000C8010F900F900F90DF91CF911F910F9104
:1016200061CEFF920F931F93CF93DF93FC01008154
:10163000C181D281F8948981F02EF0948F21898321
:1016400078941DE7115029F182E090E00E94241A5D
:1016500088818023B9F3F8948A818F218A838981D4
:10166000802B8983789480EE91E00E94241AF8946C
:1016700089818F21898386E490E00E94241A8881E1
:10168000802311E009F010E078948AE991E00E944B
:10169000241A812FDF91CF911F910F91FF90089510
:1016A0001F93CF93DF93FC011081C181D281912FD1
:1016B000909560FF12C0F8948A8189238A8389817A
:1016C000812B89838AE090E00E94241A8A81812BF1
:1016D0008A83789487E390E011C0F8948A81892303
:1016E0008A838981812B898381E490E00E94241A76
:1016F0008A81812B8A83789485E090E0DF91CF9175
:101700001F910C94241A0F931F93CF93DF93FC0126
:101710001081C181D281F8948981812B89838A814A
:10172000012F009580238A8383E090E00E94241A91
:101730008981802389838AE090E00E94241AC881ED
:10174000789485E390E00E94241A1C2381E009F438
:1017500080E0DF91CF911F910F910895CF92DF929A
:10176000EF92FF920F931F93CF93DF931F92CDB70A
:10177000DEB76C01E62E08E010E0FF24F39461E090
:101780009F2D9E2109F460E0C601498389DFFF0C8B
:101790000150110949810115110589F7411115C041
:1017A000F894D6011196ED91FC91129791818C914C
:1017B0008095892381831196ED91FC9112979281F6
:1017C0008C9180958923828378940F90DF91CF91BB
:1017D0001F910F91FF90EF90DF90CF900895EF92BF
:1017E000FF920F931F93CF93DF938C01C8E0D0E05B
:1017F000F12CEE24E394C80186DF8111FE28EE0C63
:101800002197C9F78F2DDF91CF911F910F91FF90F5
:10181000EF900895CF92DF92FF920F931F93CF9393
:10182000DF931F92CDB7DEB78C01F62E40E065E561
:10183000798394DFCF2C7981D72E88E0F82EF601BA
:1018400061916F0140E0C80189DFFA94C1F70F9000
:10185000DF91CF911F910F91FF90DF90CF9008956E
:1018600040E06CEC7BCFFC0113861586148627E0E4
:1018700030E0DF01A20FB31F13961C922115310532
:1018800019F021503109F5CF08951F93CF93DF93BD
:10189000EC01162F60E0812F0E94E51A612F70E0A5
:1018A000FB01E950FD4FE491E883FB01E35CFC4F51
:1018B000E491F0E0EE0FFF1FED57FC4F85919491FE
:1018C0009A838983CE01DF91CF911F91CCCFAF92C4
:1018D000BF92CF92DF92EF92FF920F931F93CF931D
:1018E000DF931F92CDB7DEB75C01D62EE72EFC0149
:1018F0008585811158C0C50194DE811105C0F501AF
:1019000013861586148668C040E060EFC50126DFA7
:1019100001E0F12CC12C11E0C501F5DE682FC501F5
:101920006983F1DE6981613019F48130B9F432C024
:101930002F2D30E068131BC0F5018385181730F494
:10194000E20FF31F8381802349F402C0181731F09E
:1019500060E0193058F4F501148708C0F501EF0D67
:10196000F11D8381802B838361E009C0C12EF501C5
:10197000E20FF31F8381902F909589238383C50104
:101980008FDE1F5F000F11F4F39401E0F7E0FF1505
:1019900008F0C2CF113438F0F501C386C11009C078
:1019A00081E0858706C0F50113861586148680E0E0
:1019B00013C0F50183818823B1F3ED2DFE2D80E066
:1019C00090E0D501A80FB91F13962C912193019691
:1019D00088309105B1F781E00F90DF91CF911F9191
:1019E0000F91FF90EF90DF90CF90BF90AF90089550
:1019F000DC0180E0615038F0ED91E827F0E0E85F2D
:101A0000FE4F8491F7CF08951F93CF93DF93162F46
:101A1000FC01C081D181209779F08B81811308C0AE
:101A2000E881F9810190F081E02D612FCE011995B7
:101A30000C80DD81C02DEFCFDF91CF911F910895F4
:101A40001F920F920FB60F9211240BB60F922F9385
:101A50003F934F935F936F937F938F939F93AF9336
:101A6000BF93EF93FF9360E087E093E0CDDFFF91BA
:101A7000EF91BF91AF919F918F917F916F915F9106
:101A80004F913F912F910F900BBE0F900FBE0F9073
:101A90001F9018951F920F920FB60F9211240BB63C
:101AA0000F922F933F934F935F936F937F938F93F7
:101AB0009F93AF93BF93EF93FF9361E087E093E031
:101AC000A3DFFF91EF91BF91AF919F918F917F9194
:101AD0006F915F914F913F912F910F900BBE0F909F
:101AE0000FBE0F901F9018951F920F920FB60F9276
:101AF00011240BB60F922F933F934F935F936F93E5
:101B00007F938F939F93AF93BF93EF93FF9362E085
:101B100087E093E079DFFF91EF91BF91AF919F91C3
:101B20008F917F916F915F914F913F912F910F9086
:101B30000BBE0F900FBE0F901F9018956F927F9263
:101B40008F929F92AF92BF92CF92DF92EF92FF92CD
:101B50000F931F93CF93DF93CDB7DEB73C01D62E03
:101B6000DC0150962D933D934D935C935397FC016C
:101B7000E48AF58A068B178BC08E59968D929D92BA
:101B8000AD92BC925C9761E08D2D0E94E51A8D2D7F
:101B900090E0FC01E950FD4FE491D3019096EC9365
:101BA000FC01E35CFC4FE491F0E0EE0FFF1FE35615
:101BB000FC4F85919491F30192A381A381E0858FDD
:101BC000DF91CF911F910F91FF90EF90DF90CF9019
:101BD000BF90AF909F908F907F906F9008952F92BD
:101BE0003F924F925F926F927F928F929F92AF92AD
:101BF000BF92CF92DF92EF92FF920F931F93CF93FA
:101C0000DF9300D01F92CDB7DEB73C01D62E19016D
:101C10002A01E982FA820B831C8325E43EE0B201AB
:101C2000A101B9D1E980FA800B811C81A201910147
:101C30006D2DC30183DF0F900F900F900F90DF91F8
:101C4000CF911F910F91FF90EF90DF90CF90BF90B9
:101C5000AF909F908F907F906F905F904F903F904C
:101C60002F900895CF93DF93EC011F8E1E8E40E0DE
:101C700050E0BA01A9D1BE0189E093E0DF91CF9194
:101C8000F6C0BC0189E093E0D2C0CF93DF93EC01B2
:101C90002F8D9D8DE9A1FAA188A1213099F4913071
:101CA00029F4908180958923808303C09081982BAB
:101CB00090838E8D8F5F8E8F1F8E4C895D896E898C
:101CC0007F8910C0913021F49081982B908304C0BB
:101CD000908180958923808381E08F8F48895989FD
:101CE0006A897B89CE0170D1888D8823B9F09E8D59
:101CF0009817A0F01E8E498D5A8D6B8D7C8D4115E5
:101D000051056105710531F082E08F8FCE01DF91C1
:101D1000CF915AC1CE01DF91CF91B3CFDF91CF9157
:101D20000895AF92BF92CF92DF92EF92FF920F93FE
:101D30001F93CF93DF93EC016A017B01590123ECE0
:101D40003EE029D1C88AD98AEA8AFB8ABF8AAE8A4C
:101D50001D8B0C8BDF91CF911F910F91FF90EF9016
:101D6000DF90CF90BF90AF900895CF93DF93EC01B9
:101D7000188E40E050E0BA0127D1BE0189E093E01F
:101D8000DF91CF9174C0CF93DF93EC01888D8111E7
:101D90000AC081E0888F488959896A897B89CE0188
:101DA000DF91CF9111C1813099F4BE0189E093E0B8
:101DB0003ED0EE89FF89309739F48C899D89009750
:101DC00039F0DF91CF91D1CFCE0119958111F5CFA7
:101DD000DF91CF9108958F929F92AF92BF92CF9251
:101DE000EF92FF920F931F93CF93DF93EC0180EA62
:101DF000882E8FE0982EA12CB12C92E0C92E14E6EB
:101E0000E12EF12C00E010E028EC30E040E050E062
:101E1000CE01E5DECE01DF91CF911F910F91FF90B2
:101E2000EF90CF90BF90AF909F908F901BCFDC0131
:101E3000ED91FC9111973097C9F0E617F70749F437
:101E4000268537852D933C9308958617970731F0A3
:101E5000FC01868597850097C1F708C0DB011E96B7
:101E60008D919C911F9797878687089508950F936A
:101E70001F93CF93DF938C01EB01D9DFD801ED9154
:101E8000FC911197309719F4CD93DC9308C08685A7
:101E90009785009711F0FC01FACFD787C6870E947B
:101EA000DB19088119812A813B81601B710B820B30
:101EB000930B6C837D838E839F831F861E86DF91A9
:101EC000CF911F910F910895CF92DF92EF92FF92E1
:101ED0000F931F93CF93DF93EB010E94DB196B01EC
:101EE0007C014C815D816E817F81088119812A810D
:101EF0003B81400F511F621F731FC416D506E606B3
:101F0000F70690F00C811D812E813F81401751070B
:101F100062077307D8F40C811D812E813F81C016A2
:101F2000D106E206F30690F00C811D812E813F81DF
:101F3000C016D106E206F306A8F40C811D812E819D
:101F40003F81401751076207730760F0C886D98642
:101F5000EA86FB86EC85FD85CE011995CC82DD8273
:101F6000EE82FF82DF91CF911F910F91FF90EF9052
:101F7000DF90CF9008958C01F801C081D181209726
:101F8000D9F3BE01C801A0DF0E84DF85C02DF7CFD5
:101F900089E093E0F0DFCF93DF93FC01E901A8EE45
:101FA000B3E09A01AB010E94BC24608371838283F9
:101FB0009383D587C4871482158216821782178669
:101FC0001686DF91CF910895FC01A8EEB3E09A0147
:101FD000AB010E94BC246083718382839383089544
:101FE0006F927F928F929F92AF92BF92CF92DF9229
:101FF000EF92FF920F931F93CF93DF93EA012CE3AD
:10200000C22ED12CE12CF12CA70196010E9485242F
:102010006883CA01B901A70196010E9485246983DA
:10202000CA01B90128E130E040E050E00E94852477
:1020300049015A016A83CA01B9016C5F7F4F8F4F12
:102040009F4F27E030E040E050E00E9485246F5F22
:102050006B8300E010E0980140E054E6652E712C9F
:1020600060E9C62EDD24D394E42FF0E0EE54F84F5F
:102070007F0183E0E822FF24E114F10489F4CF0119
:10208000B3010E947224892B29F08EE691E0A0E032
:10209000B0E00AC0CF01B6010E947224892BA9F3D7
:1020A0008DE691E0A0E0B0E0080F191F2A1F3B1F4A
:1020B000D901C801AA27BB2788169906AA06BB061C
:1020C00010F04F5FD1CF4E83E114F10499F4CF01AA
:1020D00064E670E00E947224892B29F08EE691E07C
:1020E000A0E0B0E00BC0CF0160E971E00E94722473
:1020F000892BA1F38DE691E0A0E0B0E0081B190B5D
:102100002A0B3B0B801A910AA20AB30ACF0164E69C
:1021100070E00E9472249C01CF0160E971E00E948E
:102120007224E1E3F2E0A0E0A13059F4E114F104FB
:1021300051F42115310511F04DE106C00097E1F38E
:1021400002C0408101C04CE150E060E070E08416C4
:102150009506A606B70640F0841A950AA60AB70A9D
:10216000AF5F3196AC3001F7AF5FAD8383948C8263
:10217000DF91CF911F910F91FF90EF90DF90CF9063
:10218000BF90AF909F908F907F906F900895CF9267
:10219000DF92EF92FF926B017C0180911B03909183
:1021A0001C03A0911D03B0911E03C816D906EA06B0
:1021B000FB0669F04FE153E0C701B60111DFC092A1
:1021C0001B03D0921C03E0921D03F0921E03FF90AC
:1021D000EF90DF90CF900895DADF8091210390E0B7
:1021E0000895D5DF8091200390E00895D0DF80919D
:1021F0001F0390E00895CBDF8091230390E00895C2
:10220000C6DF8091240390E00895C1DF809125030B
:1022100090E08E54984F08956F927F928F929F9284
:10222000AF92BF92CF92DF92EF92FF920F931F93E4
:10223000CF93DF93FC01C680AC2DB0E020E833E300
:1022400041EE51E00E94BC244B015C0122EB37E0DF
:102250006D01C4E6D0E000E911E0C901825B97405E
:102260008C159D05DCF4C90183709927892B99F49D
:10227000C901BE010E947224892B31F4C901B80141
:102280000E947224892B39F480E8880E81E5981E1B
:1022900081E0A81EB11C2F5F3F4FDFCF6580712CFE
:1022A0008EE4C81A88EFD80AC60164E670E00E947E
:1022B00072248C01C60160E971E00E9472247C01E5
:1022C000C1E0D0E083E0C822DD24C615D7052CF597
:1022D000C230D10589F4C114D10471F4011511057E
:1022E00019F4E114F10441F480E8880E8BE3981EA0
:1022F00086E2A81EB11C0FC0DE01A05DBD4FAC91EF
:10230000B0E020E831E541E050E00E94BC24860EB8
:10231000971EA81EB91E2196D8CF4181228130E098
:10232000A0E1BEE00E94AD246B017C01242F30E0CF
:10233000ACE3B0E00E94AD24C60ED71EE81EF91E25
:102340008081C80ED11CE11CF11CA481B0E0119762
:1023500020E831E541E050E00E94C624C60ED71EB9
:10236000E81EF91EC80CD91CEA1CFB1CC701B601EB
:10237000DF91CF911F910F91FF90EF90DF90CF9061
:10238000BF90AF909F908F907F906F9008950F9324
:102390001F9360931703709318038093190390930E
:1023A0001A03009106021091070220910802309151
:1023B0000902060F171F281F391F00930F031093E0
:1023C0001003209311033093120382E090E0909366
:1023D0000E0380930D03E3D76093130370931403EC
:1023E00080931503909316031F910F910895CF9238
:1023F000DF92EF92FF920F931F93D1D7C0901303F8
:10240000D0901403E0901503F09016036C197D0929
:102410008E099F0900911703109118032091190349
:1024200030911A03683E734081059105D8F00F5F23
:102430001F4F2F4F3F4F0093170310931803209304
:10244000190330931A0348EEC40E43E0D41EE11C76
:10245000F11CC0921303D0921403E0921503F09282
:102460001603CBCF80910F0390911003A09111031D
:10247000B0911203081719072A073B07C0F1E09132
:102480000B03F0910C03309791F1199561157105CB
:102490008105910511F07BDF2AC0809106029091A1
:1024A0000702A0910802B0910902409117035091D0
:1024B00018036091190370911A03840F951FA61FCA
:1024C000B71F80930F0390931003A0931103B09351
:1024D000120381E090E020910D0330910E03232B35
:1024E00011F480E090E090930E0380930D036091CF
:1024F0001703709118038091190390911A031F918B
:102500000F91FF90EF90DF90CF90089570DF809152
:102510000D0390910E03089590930C0380930B0389
:102520008091170390911803A0911903B0911A0399
:1025300080930F0390931003A0931103B0931203A1
:1025400056CF8091560390E020915703821B91094A
:1025500008952091570380915603281750F4E22FD5
:10256000F0E0E85AFC4F808190E02F5F2093570302
:1025700008958FEF9FEF0895E091570380915603E0
:10258000E81730F4F0E0E85AFC4F808190E00895BD
:102590008FEF9FEF08950895CF92DF92EF92FF9211
:1025A0000F931F93CF93DF937C01CB018A0120917E
:1025B0003203222389F0EB016B01C40ED51ECC152A
:1025C000DD0561F06991D701ED91FC910190F081F9
:1025D000E02DC7011995F3CF642F8FD1C801DF918A
:1025E000CF911F910F91FF90EF90DF90CF900895C2
:1025F000CF93DF931F92CDB7DEB76983209132036B
:102600002223D1F020913303203240F021E030E04A
:10261000FC013383228380E090E014C08091340376
:10262000E82FF0E0EB5CFC4F998190838F5F809303
:1026300034038093330304C061E0CE0101965DD181
:1026400081E090E00F90DF91CF910895FC0113821B
:10265000128248EE53E060E070E044835583668365
:10266000778381E492E091838083089510925703E9
:1026700010925603109234031092330383C081E00A
:102680008093320360935503109234031092330306
:102690000895F5CF0F93062F21E04091330365E3B2
:1026A00073E080915503D2D010923403109233031B
:1026B000109232030F9108958F929F92AF92BF9222
:1026C000CF92DF92EF92FF920F931F93CF93DF93FE
:1026D000EC01F62ED42E48015901EE2009F1CFDF8E
:1026E0001E2D143008F013E01150B8F0E881F98184
:1026F00028E0129FB0011124A501940104C0569551
:102700004795379527956A95D2F7CA01B901019087
:10271000F081E02DCE011995E7CF60E0CE01BADF60
:102720004D2D413208F040E22C2D68E573E08F2DED
:1027300045D01092570380935603DF91CF911F919C
:102740000F91FF90EF90DF90CF90BF90AF909F9050
:102750008F900895CF92EF920F931F93C22EE12C8A
:1027600000E010E09801A8DF1F910F91EF90CF904B
:10277000089521E0EFCF21E0EDCF61E08BCF86E23D
:1027800093E064CF1092E50381E08093E30310921D
:10279000E20361E084E152D761E085E14FD7E9EBE4
:1027A000F0E080818E7F808380818D7F808388E4CC
:1027B0008093B80085E48093BC000895413208F00E
:1027C00043C09091E5039111FCCF91E09093E50314
:1027D0002093E3032FEF209378031092BD03240F7F
:1027E0002093BC039093E4039091E403880F892B1A
:1027F0008093E4038091E203813061F41092E2035C
:102800008091E4038093BB008091BC0083FDF8CFEE
:1028100085EC01C085EE8093BC008091E50381309A
:10282000E1F38091BD03841710F44091BD032EEBBA
:1028300033E0FB01D9018A2F821B841718F48D9194
:102840008193F9CF842F089580E008950F9341324A
:1028500008F04AC09091E5039111FCCF92E090936B
:10286000E5030093E3039FEF909378031092BD0379
:102870004093BC03FB016EEB73E0DB019A2F961BC8
:10288000941718F491919D93F9CF1092E4039091CD
:10289000E403880F892B8093E4038091E203813065
:1028A00061F41092E2038091E4038093BB00809175
:1028B000BC0083FDF8CF85EC01C085EE8093BC00A1
:1028C000222321F08091E5038230E1F380917803A7
:1028D0008F3F61F080917803803251F080917803CE
:1028E000803341F483E007C081E005C080E003C08D
:1028F00082E001C084E00F910895613298F4209144
:10290000E503243089F460939A03FC018CE993E099
:10291000DC012A2F281B261718F421912D93F9CFBB
:1029200080E0089581E0089582E0089585ED809328
:10293000BC008091BC0084FDFCCF1092E50308959B
:1029400085EC8093BC001092E50308951F920F92CE
:102950000FB60F9211240BB60F922F933F934F9304
:102960005F936F937F938F939F93AF93BF93EF93F7
:10297000FF938091B900887F803609F49DC070F57F
:10298000883209F45CC090F4803109F455C038F401
:10299000882309F4F3C0883009F44EC0F2C08831AE
:1029A00009F44DC0803209F45EC0EBC0803409F4F4
:1029B00069C050F4803309F456C0883309F0E1C08F
:1029C00080937803BDDFDDC0803509F44FC08835C2
:1029D00009F45DC0883409F0D4C0D2C0883909F444
:1029E000C3C0A8F4883709F467C038F4883609F4FE
:1029F00063C0803709F460C0C4C0883809F4B4C02B
:102A0000803909F45FC0803809F0BBC05BC0803BEF
:102A100009F482C038F4803A09F466C0883A09F4AF
:102A20007BC0AFC0803C09F4A3C0883C09F4A0C0BF
:102A3000883B09F486C0A5C08091E40310C0909142
:102A4000BD038091BC03981770F5E091BD0381E050
:102A50008E0F8093BD03F0E0E254FC4F80818093A1
:102A6000BB0085EC82C0809378038AC0E091BD03EF
:102A700081E08E0F8093BD038091BB00F0E0E254B3
:102A8000FC4F80839091BD038091BC036AC0E091AC
:102A9000BD0381E08E0F8093BD038091BB00F0E009
:102AA000E254FC4F80838091E303811169C081E08F
:102AB0008093E20384EA5DC083E08093E503109293
:102AC0007903CFCF80917903803208F04DC0E09137
:102AD000790381E08E0F809379038091BB00F0E051
:102AE000E658FC4F8083BDCF2BDF80917903803285
:102AF00030F4E0917903F0E0E658FC4F10826091E9
:102B0000790370E0E091DE03F091DF038AE793E060
:102B100019951092790335C084E08093E5031092F3
:102B20009B0310929A03E091E003F091E103199561
:102B300080919A03811105C081E080939A031092DD
:102B40009C03E0919B0381E08E0F80939B03F0E058
:102B5000E456FC4F80818093BB0090919B03809151
:102B60009A03981708F47DCF85E88093BC0009C0CC
:102B700085EC8093BC001092E50303C010927803AB
:102B8000D5DEFF91EF91BF91AF919F918F917F9192
:102B90006F915F914F913F912F910F900BBE0F90CE
:102BA0000FBE0F901F901895EF92FF920F931F93F7
:102BB000CF93DF9388E994E00E940A0400E010E0DC
:102BC000C0E0D0E08091F6039091F703C817D907D1
:102BD000ACF5E090F803F090F903E00EF11E6C2FD5
:102BE00088E994E00E949704F701608371838283EF
:102BF000938361E672E080ED94E0E5D74AE050E02F
:102C0000BE0180ED94E00E94CF1E6EE572E080ED83
:102C100094E0D9D7E091F803F091F903E00FF11FA8
:102C2000408151816281738122E030E080ED94E047
:102C30000E94E01F21960C5F1F4FC4CFDF91CF9100
:102C40001F910F91FF90EF900895CF92DF92EF9236
:102C5000FF9289EB94E00E94FA056093EE03709373
:102C6000EF038093F0039093F10360E089EB94E02D
:102C70000E9487056B017C016093F2037093F3035C
:102C80008093F4039093F5036091EE037091EF034A
:102C90008091F0039091F1039B01AC010E946224AA
:102CA000811132C0A7019601C701B6010E946224BA
:102CB00081112AC06DE272E080ED94E084D74091EA
:102CC000F2035091F3036091F4037091F50322E055
:102CD00030E080ED94E00E94E01F6CE172E080ED56
:102CE00094E071D74091EE035091EF036091F003AF
:102CF0007091F10322E030E080ED94E0FF90EF90DE
:102D0000DF90CF900C94E01F6EE372E080ED94E0D2
:102D1000FF90EF90DF90CF9084C7CF92DF92EF9239
:102D2000FF926A017B01482F60E08FE794E00E94E8
:102D3000350962E172E08FE794E045D722E030E0A8
:102D4000B701A6018FE794E0FF90EF90DF90CF905E
:102D50000C94DF1F0F931F93CF93DF9300E010E0DD
:102D6000C0E0D0E08091F6039091F703C817D9072F
:102D700084F42196E091F803F091F903E00FF11F3C
:102D80004081518162817381CE01C7DF0C5F1F4F8B
:102D9000E9CF81E0DF91CF911F910F910895CF92FC
:102DA000DF92EF92FF926A017B01482F60E08FE78C
:102DB00094E00E94350968E072E08FE794E003D761
:102DC00022E030E0B701A6018FE794E0FF90EF909A
:102DD000DF90CF900C94DF1F4091F2035091F303EA
:102DE0006091F4037091F50381E090E096DF4091EB
:102DF000EE035091EF036091F0037091F10382E0D4
:102E000090E0CDDF81E008954F925F926F927F92C4
:102E10008F929F92AF92BF92CF92DF92EF92FF92EA
:102E20000F931F93CF93DF93CDB7DEB765970FB6A0
:102E3000F894DEBF0FBECDBF6B017C01D7D9582EF1
:102E4000492EC701B601CDD9782E692EC701B6012A
:102E5000C3D9982E892EC701B601D7D9B82EA92E6D
:102E6000C701B601CDD9182F092FC701B601C3D9A3
:102E70004F925F926F927F928F929F92AF92BF928A
:102E80000F931F939F938F938DE492E09F938F9363
:102E90008E010F5F1F4F1F930F930E940F26B801E3
:102EA00080ED94E0CED640E060E08FE794E00E94B1
:102EB0003509B8018FE794E0A9D60FB6F894DEBFC4
:102EC0000FBECDBF65960FB6F894DEBF0FBECDBF67
:102ED000DF91CF911F910F91FF90EF90DF90CF90F6
:102EE000BF90AF909F908F907F906F905F904F902A
:102EF0000895EF920F936CE672E080ED94E0A1D616
:102F00008CE397E009DB02DB029719F06CE772E0D3
:102F100002C068E972E080ED94E093D680ED94E021
:102F20007DD641E061E086E093E00E94460841E002
:102F300062E086E093E00E94460864E070E086E08C
:102F400093E00E948B08E12C00E020E040E06EE876
:102F500070E086E093E00E948F0620E04EE16EE094
:102F600070E086E093E00E948F060F91EF90089545
:102F700064EB72E080ED94E049D68AE094D34AE0B5
:102F800050E0BC0180ED94E011D763EC72E080ED7D
:102F900094E03CD661E086E093E00E946D08682FE3
:102FA00070E04AE050E080ED94E000D763ED72E01D
:102FB00080ED94E02BD662E086E093E00E946D08FD
:102FC000682F70E04AE050E080ED94E0EFD680EDAD
:102FD00094E024C68AE067D3892B09F4C9CF089509
:102FE00063EE72E080ED94E00E949021811104C0B4
:102FF00060E070E0CB01089580ED94E00E94CF2066
:10300000603C2FEC720722EE820720E5920780F3E6
:1030100008958F92AF92CF92EF920F931F9326E075
:1030200046E160E289EB94E00E94C0046EE18BEA25
:1030300094E00E94450C6BEA74E088E994E00E94F9
:1030400020021F921F9283E08F9387E0882E96E0E4
:10305000A92E25E0C22E34E0E32E00E021E042E07C
:1030600067E28FE794E00E94750A25E239E140E0CB
:1030700050E0BA018FE694E00E94CB0F24ED35E1D9
:1030800040E65AEE60E070E08FE594E00E94CB0FDE
:1030900025E236E140E65AEE60E070E08FE494E02D
:1030A0000E94CB0F00E010E02AEA36E140ED57E045
:1030B00060E070E086E394E00E94910E06E314E085
:1030C0002CEE36E140ED57E060E070E08DE194E0F9
:1030D0000E94910E0F900F900F906DE08AEF93E099
:1030E0001F910F91EF90CF90AF908F900C94EB0EBB
:1030F00056D16093EA037093EB038093EC039093B3
:10310000ED0361E08DE061D262E08AE05ED226E00C
:1031100040E855E260E070E080ED94E0FDD388E99E
:1031200094E00E942B0389EB94E00E94C70420E006
:1031300044E064E18FE794E00E94F90A61E08FE7E0
:1031400094E00E94FF098FE794E00E942F0941E07C
:1031500065E08FE794E00E94350967EA72E08FE747
:1031600094E031D568EE73E080E090E047D188E9E3
:1031700094E00E942F0290E09093F7038093F6036F
:1031800069E972E080ED94E01ED56091F6037091DC
:10319000F7034AE050E080ED94E008D68091F80310
:1031A0009091F903009709F0CFD48091F6039091A4
:1031B000F703813C2FE1920728F4880F991F880FAD
:1031C000991F02C08FEF9FEFBED49093F9038093B5
:1031D000F8038FE794E00E9429098FE794E00E94AA
:1031E0002F0969E872E08FE794E0EDD46091F6036F
:1031F0007091F7034AE050E08FE794E0D0D579DE94
:1032000068EE73E080E090E0F9D08FE794E00E94F0
:1032100029096FE674E089E093E00E94370F6FE5BB
:1032200074E089E093E00E94370F6FE474E089E076
:1032300093E00E94370F8DE194E090934B048093CC
:103240004A0486E394E00C94B50ECF92DF92EF929D
:10325000FF920F931F938091EA039091EB03A0914B
:10326000EC03B091ED034091E6035091E7036091C8
:10327000E8037091E9038C019D01041B150B260BDB
:10328000370BB901A801493E53406105710558F05B
:103290008093E6039093E703A093E803B093E903D8
:1032A0000E943C07B1DD7BD06093EA037093EB038F
:1032B0008093EC039093ED0380ED94E01ED2892B74
:1032C000E9F08EDE6B017C016115710581059105C8
:1032D000A9F0AB01BC0186E093E00E942308C7017E
:1032E000B60155D86CE672E080ED94E06CD42AE02B
:1032F00030E0B701A60180ED94E07AD51F910F91DF
:10330000FF90EF90DF90CF9065CE1F920F920FB697
:103310000F9211242F933F938F939F93AF93BF935B
:103320008091C8049091C904A091CA04B091CB04C3
:103330003091C70423E0230F2D3720F40196A11DFF
:10334000B11D05C026E8230F0296A11DB11D2093D3
:10335000C7048093C8049093C904A093CA04B0938F
:10336000CB048091CC049091CD04A091CE04B09177
:10337000CF040196A11DB11D8093CC049093CD0480
:10338000A093CE04B093CF04BF91AF919F918F9142
:103390003F912F910F900FBE0F901F9018952FB750
:1033A000F8946091C8047091C9048091CA04909106
:1033B000CB042FBF08953FB7F8948091CC0490912F
:1033C000CD04A091CE04B091CF0426B5A89B05C032
:1033D0002F3F19F00196A11DB11D3FBF6627782F21
:1033E000892F9A2F620F711D811D911D42E0660F7A
:1033F000771F881F991F4A95D1F70895CF92DF92C2
:10340000EF92FF92CF93DF936B017C01D4DFEB014E
:10341000C114D104E104F10481F00E944622CBDF03
:103420006C1B7D0B683E734098F381E0C81AD1088D
:10343000E108F108C851DC4FEBCFDF91CF91FF904D
:10344000EF90DF90CF9008958230910538F0880F8B
:10345000991F880F991F05970197F1F708957894A0
:1034600084B5826084BD84B5816084BD85B5826089
:1034700085BD85B5816085BDEEE6F0E08081816027
:103480008083E1E8F0E01082808182608083808127
:1034900081608083E0E8F0E0808181608083E1EBFF
:1034A000F0E0808184608083E0EBF0E080818160E7
:1034B0008083E1E9F0E080818260808380818160A7
:1034C0008083E0E9F0E0808181608083E1EAF0E0E0
:1034D000808182608083808181608083E0EAF0E087
:1034E000808181608083E1E2F1E08081826080837D
:1034F000808181608083E0E2F1E08081816080836F
:10350000EAE7F0E08081846080838081826080834C
:103510008081816080838081806880831092C10077
:10352000089590E0FC013197E231F10508F04CC0BC
:10353000EE58FF4F0C94A724809180008F7703C032
:10354000809180008F7D809380000895809180001D
:10355000877FF9CF84B58F7702C084B58F7D84BD16
:1035600008958091B0008F7703C08091B0008F7D67
:103570008093B0000895809190008F7707C080916C
:1035800090008F7D03C080919000877F8093900092
:1035900008958091A0008F7707C08091A0008F7D53
:1035A00003C08091A000877F8093A0000895809140
:1035B00020018F7707C0809120018F7D03C080910B
:1035C0002001877F809320010895CF93DF9390E0BF
:1035D000FC01E950FD4F2491FC01E35CFC4F849118
:1035E000882349F190E0880F991FFC01E954FC4FB2
:1035F000A591B49183569C4FFC01C591D4919FB77E
:10360000611108C0F8948C91209582238C93888155
:1036100082230AC0623051F4F8948C91322F309595
:1036200083238C938881822B888304C0F8948C91A7
:10363000822B8C939FBFDF91CF9108950F931F939F
:10364000CF93DF931F92CDB7DEB7282F30E0F9017B
:10365000EF54FD4F8491F901E950FD4F1491F901A8
:10366000E35CFC4F04910023C1F0882319F06983C7
:1036700058DF6981E02FF0E0EE0FFF1FE356FC4FAB
:10368000A591B4919FB7F8948C91611103C01095E6
:10369000812301C0812B8C939FBF0F90DF91CF912D
:1036A0001F910F910895CF93DF93282F30E0F901F8
:1036B000EF54FD4F8491F901E950FD4FD491F90188
:1036C000E35CFC4FC491CC2389F081112ADFEC2FFD
:1036D000F0E0EE0FFF1FED57FC4FA591B4912C9138
:1036E0002D2381E090E021F480E002C080E090E0B2
:1036F000DF91CF9108950E940B26FC01818D228DD0
:1037000090E0805C9F4F821B91098F7399270895E9
:10371000FC01918D828D981731F0828DE80FF11D9B
:10372000858D90E008958FEF9FEF0895FC01918DB6
:10373000828D981761F0828DDF01A80FB11D5D9613
:103740008C91928D9F5F9F73928F90E008958FEF81
:103750009FEF08958BE49DE1892B39F080E090E0A4
:10376000892B19F098D1811125C080E090E0892B38
:1037700041F080E090E0892B21F00E94000081114F
:103780001CC080E090E0892B41F080E090E0892B24
:1037900021F00E940000811113C080E090E0892B8D
:1037A000A1F080E090E0892B81F00E94000081115F
:1037B0000AC008950E940000D8CF0E940000E1CF07
:1037C0000E940000EACF0C9400000895FC01848D53
:1037D000DF01A80FB11DA35ABF4F2C91848D90E03B
:1037E00001968F739927848FA689B7892C93A08916
:1037F000B1898C9180648C93938D848D981306C0CD
:103800000288F389E02D80818F7D80830895CF9396
:10381000DF93EC01888D8823C1F0EA89FB898081E0
:1038200085FD05C0A889B9898C9186FD0EC00FB6AB
:1038300007FCF5CF808185FFF2CFA889B9898C91EB
:1038400085FFEDCFCE01C2DFE8CFDF91CF910895A4
:10385000CF92DF92FF920F931F93CF93DF931F922C
:10386000CDB7DEB76C0181E0D60158968C9358979E
:103870005B969C915B975C968C915C97981307C0C4
:103880005096ED91FC915197808185FD2DC0F601F8
:10389000038D10E00F5F1F4F0F731127F02EF601FD
:1038A000848DF81210C00FB607FCF9CFD6015096E0
:1038B000ED91FC915197808185FFF1CFC60169831D
:1038C00085DF6981ECCF838DE80FF11DE35AFF4F4F
:1038D0006083D6015B960C935B975296ED91FC91B9
:1038E0005397808180620CC0D6015696ED91FC9171
:1038F000579760835096ED91FC9151978081806439
:10390000808381E090E00F90DF91CF911F910F9124
:10391000FF90DF90CF900895BF92CF92DF92EF9209
:10392000FF92CF93DF93EC016A017B01B22EE8890D
:10393000F98982E08083411581EE580761057105A0
:1039400099F060E079E08DE390E0A7019601DDD782
:1039500021503109410951095695479537952795C9
:10396000211580E1380790F0E889F989108260E834
:1039700074E88EE190E0A7019601C7D72150310984
:10398000410951095695479537952795EC85FD8551
:103990003083EE85FF852083188EEC89FD89B08207
:1039A000EA89FB89808180618083EA89FB89808143
:1039B00088608083EA89FB89808180688083EA89C6
:1039C000FB8980818F7D8083DF91CF91FF90EF9085
:1039D000DF90CF90BF9008951F920F920FB60F9275
:1039E00011240BB60F922F938F939F93EF93FF9316
:1039F000E091E004F091E1048081E091E604F0912F
:103A0000E70482FD12C090818091E9048F5F8F737B
:103A10002091EA04821751F0E091E904F0E0E053CC
:103A2000FB4F958F8093E90401C08081FF91EF9156
:103A30009F918F912F910F900BBE0F900FBE0F9003
:103A40001F9018951F920F920FB60F9211240BB66C
:103A50000F922F933F934F935F936F937F938F9327
:103A60009F93AF93BF93EF93FF9380ED94E0AEDE0F
:103A7000FF91EF91BF91AF919F918F917F916F9146
:103A80005F914F913F912F910F900BBE0F900FBE02
:103A90000F901F90189580ED94E02FDE21E0892B88
:103AA00009F420E0822F08951092D3041092D204DA
:103AB00088EE93E0A0E0B0E08093D4049093D50426
:103AC000A093D604B093D70489EE92E09093D104EA
:103AD0008093D00485EC90E09093DD048093DC0427
:103AE00084EC90E09093DF048093DE0480EC90E01F
:103AF0009093E1048093E00481EC90E09093E304E0
:103B00008093E20482EC90E09093E5048093E404D7
:103B100086EC90E09093E7048093E6041092E90429
:103B20001092EA041092EB041092EC0408950895A8
:103B300096DCFDDFDDDACAEADBE10E94C80F2097E0
:103B4000E1F308DEFACF40C7D7C7CF92DF92EF92FA
:103B5000FF920F931F93CF93DF937C016A01EB01D8
:103B600000E010E00C151D0571F06991D701ED9191
:103B7000FC910190F081E02DC7011995892B19F076
:103B80000F5F1F4FEFCFC801DF91CF911F910F91B2
:103B9000FF90EF90DF90CF9008956115710581F04F
:103BA000DB010D900020E9F7AD0141505109461BA2
:103BB000570BDC01ED91FC910280F381E02D19940B
:103BC00080E090E00895EF92FF920F931F93CF93C0
:103BD000DF938C017B01C0E0D0E0F701EC0FFD1F0B
:103BE0006491662359F0F801A081B181ED91FC91B7
:103BF000C8011995892B11F02196EFCFCE01DF91E5
:103C0000CF911F910F91FF90EF900895C6CFDC01E7
:103C1000ED91FC910190F081E02D199465EF72E037
:103C2000BCCF0F931F93CF93DF93EC01CCDF8C01BC
:103C3000CE01F4DF800F911FDF91CF911F910F9183
:103C400008950F931F93CF93DF93EC01A6DF8C01B0
:103C5000CE01E4DF800F911FDF91CF911F910F9173
:103C600008958F929F92AF92BF92CF92DF92EF9280
:103C7000FF920F931F93CF93DF93CDB7DEB7A1973A
:103C80000FB6F894DEBF0FBECDBF7C01C42EE52F6A
:103C9000CB01D22E19A221E02D1510F02AE0D22E50
:103CA0008E010F5D1F4F8D2C912CA12CB12C6C2DF2
:103CB0007E2FA501940129D68C2DD29E8019112426
:103CC000015011098A3014F4805D01C0895CF8014B
:103CD0008083211531054105510521F0C22EE32FC6
:103CE000CA01E5CFB801C70158DFA1960FB6F89415
:103CF000DEBF0FBECDBFDF91CF911F910F91FF901F
:103D0000EF90DF90CF90BF90AF909F908F900895ED
:103D1000CF92DF92EF92FF920F931F93CF93DF9397
:103D2000EC016A017B012115310579F4E881F98103
:103D30000190F081E02D642FDF91CF911F910F91C1
:103D4000FF90EF90DF90CF9019942A303105D9F48D
:103D500077FF18C06DE25BDF8C0144275527BA015D
:103D60004C195D096E097F092AE0CE017ADF800FC8
:103D7000911FDF91CF911F910F91FF90EF90DF90F6
:103D8000CF9008952AE0B701A601CE01DF91CF912F
:103D90001F910F91FF90EF90DF90CF9062CF9A012B
:103DA000AB01662757FD6095762FB2CF0F931F9317
:103DB000CF93DF93EC019A01AB01662757FD609525
:103DC000762FA6DF8C01CE0129DF800F911FDF91B6
:103DD000CF911F910F9108952115310541F4DC0118
:103DE000ED91FC910190F081E02D642F199439CF71
:103DF0000F931F93CF93DF93EC01EEDF8C01CE0185
:103E00000DDF800F911FDF91CF911F910F910895CA
:103E10004F925F926F927F928F929F92AF92BF92DA
:103E2000CF92DF92EF92FF920F931F93CF93DF9386
:103E3000EC016A017B01B22E9A01AB01C701B60108
:103E400041D5882319F068EF72E024C026013701BC
:103E5000E89477F82FEF3FEF4FE75FE7C301B20138
:103E600031D581110CC02FEF3FEF4FE75FE7C30162
:103E7000B20172D318161CF46CEF72E00BC02FEF76
:103E80003FEF4FE75FE4C701B601B5D41816A4F4BD
:103E900060E073E0CE01DF91CF911F910F91FF9011
:103EA000EF90DF90CF90BF90AF909F908F907F90DA
:103EB0006F905F904F9071CE2FEF3FEF4FE75FEC29
:103EC000C701B60149D387FDE3CF20E030E0A90167
:103ED000C701B60141D387FF09C06DE2CE0197DE6D
:103EE0008C01F7FAF094F7F8F09402C000E010E0CB
:103EF000A12C60E070E080E09FE3AB1439F020E09B
:103F000030E040E251E42CD3A394F7CF9B01AC0105
:103F1000C701B601BDD26B017C018FD32B013C01DF
:103F2000B8D39B01AC01C701B601B1D26B017C01D2
:103F30002AE0B301A201CE0194DE080F191FBB20B5
:103F400031F064E073E0CE0128DE080F191F7B2CEE
:103F5000772019F120E030E040E251E4C701B601DA
:103F60004ED46B017C0164D34B01AA2497FCA0942E
:103F7000BA2C2AE030E0B501A401CE01C9DE080F59
:103F8000191FC501B40187D39B01AC01C701B6015C
:103F90007ED26B017C017A94DBCFC801DF91CF9197
:103FA0001F910F91FF90EF90DF90CF90BF90AF9057
:103FB0009F908F907F906F905F904F90089528CF43
:103FC0000F931F93CF93DF93EC0122DF8C01CE017F
:103FD00025DE800F911FDF91CF911F910F910895E2
:103FE0000F931F93CF93DF93EC01D9D9688779871B
:103FF0008A879B87E881F9810680F781E02DCE01D1
:10400000199597FF14C0CBD9088519852A853B855A
:10401000601B710B820B930B0C811D812E813F81E4
:10402000601771078207930728F38FEF9FEFDF91E7
:10403000CF911F910F9108950F931F93CF93DF930B
:10404000EC01ADD9688779878A879B87E881F981F8
:104050000084F185E02DCE01199597FF14C09FD9FA
:10406000088519852A853B85601B710B820B930B94
:104070000C811D812E813F81601771078207930794
:1040800028F38FEF9FEFDF91CF911F910F9108954C
:10409000CF93DF93EC01CE01CFDF97FD11C08D32BE
:1040A000910571F09C01205331092A30310540F00F
:1040B000E881F9810680F781E02DCE011995EBCFDB
:1040C000DF91CF910895CF92DF92FF920F931F93CC
:1040D000CF93DF9300D01F92CDB7DEB76C01062FD0
:1040E000D7DFFC0197FD49C020E030E0A901F12CA9
:1040F000112707FD1095E017F107E1F0ED32F1050A
:10410000B9F0CF01C0970A97A8F4AAE0B0E034D480
:104110009B01AC01CF01AA2797FDA095BA2F280FCC
:10412000391F4A1F5B1F205331094109510902C041
:10413000FF24F394D601ED91FC910680F781E02DE8
:10414000C60129833A834B835C831995C60174DFCA
:10415000FC01C09729813A814B815C810A9758F212
:10416000E017F10741F2FF2061F066277727CB01C6
:10417000621B730B840B950B06C060E070E0CB01F3
:1041800002C0CA01B9010F900F900F900F90DF91FC
:10419000CF911F910F91FF90DF90CF90089561E034
:1041A00092CF4F925F926F927F928F929F92AF9237
:1041B000BF92CF92DF92EF92FF920F931F93CF9314
:1041C000DF934C01EB0186E0849F8001859F100DF9
:1041D0001124060F171FFB01E017F10708F5828174
:1041E0009381892B19F13696F7CF408151816481F3
:1041F0007581DA01A60FB71F2C91332727FD309563
:104200008217930709F56F5F7F4F7583648322815F
:1042100033816217730751F03696E017F10728F3E0
:10422000C401DEDE97FD46C0FE01F7CFEC1BFD0B9F
:10423000F595E7952BEA3AEAE29FC001E39F900DDE
:10424000F29F900D112438C06115710529F3A480E7
:10425000B58095012150310935832483DA01A20FFD
:10426000B31FAC91BB27A7FDB0958A179B07F9F444
:1042700021153105C9F06A017B01E21AF30AE40E47
:10428000F51E412C512CD6016D906D01D7017D900A
:104290007D01671006C0BFEF4B1A5B0A421653063A
:1042A00090F34216530699F6B582A482B5CF232B1C
:1042B00071F6B2CF8FEF9FEFDF91CF911F910F91EA
:1042C000FF90EF90DF90CF90BF90AF909F908F9036
:1042D0007F906F905F904F900895CF93DF9300D0C1
:1042E00000D0CDB7DEB7FE01319626E0DF011D928A
:1042F0002A95E9F77A8369835C834B8341E050E038
:10430000BF014FDF21E0892B09F020E0822F2696A4
:104310000FB6F894DEBF0FBECDBFDF91CF910895E9
:10432000FB0101900020E9F7AF0141505109461B04
:10433000570BD3CF8230A9F028F4882349F081307D
:1043400051F00895843021F1E8F0853039F1089575
:1043500010926E00089580916F008D7F80936F00A2
:104360000895809170008D7F8093700081E080932C
:10437000B0008091B100887F84608093B10010927A
:10438000B3000895809171008D7F8093710008952E
:10439000809172008D7F80937200089580917300E8
:1043A0008D7F809373000895CF93C82F80910A0268
:1043B0008C1307C0E1EDF3E084919FEF90930A0224
:1043C00001C08FEFB7DF60E08C2FCF9137C91F920C
:1043D0000F920FB60F9211240BB60F922F933F93AB
:1043E0004F935F936F937F938F939F93AF93BF93FD
:1043F000EF93FF938091700590917105A0917205E4
:10440000B0917305892B8A2B8B2B51F190916D05FF
:10441000E0916E05F0916F058081892780838091FE
:10442000700590917105A0917205B09173051816F1
:1044300019061A061B06BCF480917005909171054F
:10444000A0917205B09173050197A109B1098093FC
:10445000700590937105A0937205B093730503C026
:1044600080910A02A1DFFF91EF91BF91AF919F91DF
:104470008F917F916F915F914F913F912F910F900D
:104480000BBE0F900FBE0F901F90189508955058B7
:10449000BB27AA270ED075C166D130F06BD120F0B2
:1044A00031F49F3F11F41EF45BC10EF4E095E7FB7D
:1044B00051C1E92F77D180F3BA17620773078407D8
:1044C000950718F071F49EF58FC10EF4E0950B2E50
:1044D000BA2FA02D0B01B90190010C01CA01A00156
:1044E0001124FF27591B99F0593F50F4503E68F1B1
:1044F0001A16F040A22F232F342F4427585FF3CFF2
:10450000469537952795A795F0405395C9F77EF4C2
:104510001F16BA0B620B730B840BBAF09150A1F00B
:10452000FF0FBB1F661F771F881FC2F70EC0BA0F91
:10453000621F731F841F48F4879577956795B79519
:10454000F7959E3F08F0B3CF9395880F08F0992711
:10455000EE0F979587950895D9D008F481E00895D6
:104560000CD00FC107D140F0FED030F021F45F3FF6
:1045700019F0F0C0511139C1F3C014D198F3992347
:10458000C9F35523B1F3951B550BBB27AA27621717
:104590007307840738F09F5F5F4F220F331F441F5C
:1045A000AA1FA9F333D00E2E3AF0E0E830D0915094
:1045B0005040E695001CCAF729D0FE2F27D0660F81
:1045C000771F881FBB1F261737074807AB07B0E8C0
:1045D00009F0BB0B802DBF01FF2793585F4F2AF0D6
:1045E0009E3F510568F0B6C000C15F3FECF3983EB6
:1045F000DCF3869577956795B795F7959F5FC9F733
:10460000880F911D9695879597F90895E1E0660FBB
:10461000771F881FBB1F621773078407BA0720F034
:10462000621B730B840BBA0BEE1F88F7E09508959D
:1046300004D06894B111D9C00895BCD088F09F57B8
:1046400090F0B92F9927B751A0F0D1F0660F771FDE
:10465000881F991F1AF0BA95C9F712C0B13081F0BE
:10466000C3D0B1E00895C0C0672F782F8827B85F06
:1046700039F0B93FCCF3869577956795B395D9F71F
:104680003EF490958095709561957F4F8F4F9F4F29
:104690000895E89409C097FB3EF490958095709535
:1046A00061957F4F8F4F9F4F9923A9F0F92F96E97E
:1046B000BB279395F695879577956795B795F111F3
:1046C000F8CFFAF4BB0F11F460FF1BC06F5F7F4F90
:1046D0008F4F9F4F16C0882311F096E911C07723A2
:1046E00021F09EE8872F762F05C0662371F096E8AB
:1046F000862F70E060E02AF09A95660F771F881F7A
:10470000DAF7880F9695879597F90895990F00081D
:10471000550FAA0BE0E8FEEF16161706E807F90793
:10472000C0F012161306E407F50798F0621B730B2E
:10473000840B950B39F40A2661F0232B242B252BAF
:1047400021F408950A2609F4A140A6958FEF811D52
:10475000811D089597F99F6780E870E060E00895F3
:104760009FEF80EC089500240A9416161706180689
:104770000906089500240A94121613061406050665
:104780000895092E0394000C11F4882352F0BB0FF6
:1047900040F4BF2B11F460FF04C06F5F7F4F8F4F59
:1047A0009F4F089557FD9058440F551F59F05F3F94
:1047B00071F04795880F97FB991F61F09F3F79F043
:1047C00087950895121613061406551FF2CF4695C5
:1047D000F1DF08C0161617061806991FF1CF869547
:1047E0007105610508940895E894BB27662777272B
:1047F000CB0197F908958ADF08F48FEF08950BD065
:10480000C0CFB1DF28F0B6DF18F0952309F0A2CFB2
:10481000A7CF1124EACFC6DFA0F3959FD1F3950F60
:1048200050E0551F629FF001729FBB27F00DB11D34
:10483000639FAA27F00DB11DAA1F649F6627B00DC4
:10484000A11D661F829F2227B00DA11D621F739FAD
:10485000B00DA11D621F839FA00D611D221F749FBB
:104860003327A00D611D231F849F600D211D822F02
:10487000762F6A2F11249F5750408AF0E1F0882349
:104880004AF0EE0FFF1FBB1F661F771F881F915056
:104890005040A9F79E3F510570F05CCFA6CF5F3F17
:1048A000ECF3983EDCF3869577956795B795F79589
:1048B000E7959F5FC1F7FE2B880F911D9695879511
:1048C00097F9089523DF880B990B0895991B79E0D8
:1048D00004C0991F961708F0961B881F7A95C9F790
:1048E0008095089597FB072E16F4009406D077FD67
:1048F00008D056D007FC05D03EF4909581959F4F87
:104900000895709561957F4F0895A1E21A2EAA1B14
:10491000BB1BFD010DC0AA1FBB1FEE1FFF1FA2176F
:10492000B307E407F50720F0A21BB30BE40BF50B6C
:10493000661F771F881F991F1A9469F760957095F5
:10494000809590959B01AC01BD01CF010895EE0FBC
:10495000FF1F0590F491E02D1994A29FB001B39F21
:10496000C001A39F700D811D1124911DB29F700D78
:10497000811D1124911D0895F0DFA59F900DB49F16
:10498000900DA49F800D911D11240895B7FFF4CFC1
:10499000F3DF821B930B08950790F691E02D199495
:1049A000AA1BBB1B51E107C0AA1FBB1FA617B70755
:1049B00010F0A61BB70B881F991F5A95A9F7809571
:1049C0009095BC01CD010895CF93DF93823091057E
:1049D00010F482E090E0E0917605F091770520E018
:1049E00030E0A0E0B0E0309739F1408151814817C4
:1049F0005907B8F04817590771F4828193811097CD
:104A000029F013969C938E9312972CC09093770560
:104A10008093760527C02115310531F042175307E1
:104A200018F0A901DB0101C0EF019A01BD01DF010E
:104A30000280F381E02DD7CF21153105F9F0281B35
:104A4000390B2430310580F48A819B816115710511
:104A500021F0FB019383828304C0909377058093B8
:104A60007605FE01329644C0FE01E20FF31F8193EA
:104A7000919322503109398328833AC020917405DB
:104A800030917505232B41F42091020230910302ED
:104A90003093750520937405209100023091010236
:104AA0002115310541F42DB73EB7409104025091D4
:104AB0000502241B350BE0917405F0917505E21792
:104AC000F307A0F42E1B3F0B2817390778F0AC0131
:104AD0004E5F5F4F2417350748F04E0F5F1F50930E
:104AE0007505409374058193919302C0E0E0F0E076
:104AF000CF01DF91CF910895CF93DF93009709F411
:104B000087C0FC01329713821282C0917605D09142
:104B10007705209781F420813181280F391F8091FA
:104B20007405909175058217930779F5F0937505D3
:104B3000E09374056DC0DE0120E030E0AE17BF07E2
:104B400050F412964D915C9113979D0141155105BA
:104B500009F1DA01F3CFB383A28340815181840F3D
:104B6000951F8A179B0771F48D919C911197840F63
:104B7000951F02969183808312968D919C91139735
:104B8000938382832115310529F4F0937705E0930F
:104B900076053EC0D9011396FC93EE9312974D9182
:104BA0005D91A40FB51FEA17FB0779F4808191810D
:104BB000840F951F0296D90111969C938E93828142
:104BC000938113969C938E931297E0E0F0E08A8194
:104BD0009B81009719F0FE01EC01F9CFCE010296FE
:104BE00028813981820F931F2091740530917505BA
:104BF0002817390769F4309729F410927705109235
:104C0000760502C013821282D0937505C093740595
:104C1000DF91CF91089581E090E0F894C2C20F93A4
:104C20001F93CF93DF93CDB7DEB72E970FB6F894CF
:104C3000DEBF0FBECDBF0E891F8986E08C831A832D
:104C400009838FEF9FE79E838D83AE01465E5F4FA2
:104C5000688D798DCE01019610D0EF81F885E00F37
:104C6000F11F10822E960FB6F894DEBF0FBECDBF97
:104C7000DF91CF911F910F9108952F923F924F9204
:104C80005F926F927F928F929F92AF92BF92CF92DC
:104C9000DF92EF92FF920F931F93CF93DF93CDB7E5
:104CA000DEB72C970FB6F894DEBF0FBECDBF7C01E8
:104CB0006B018A01FC0117821682838181FFB0C1DA
:104CC000CE0101964C01F7019381F60193FD859188
:104CD00093FF81916F01882309F49EC1853239F4D5
:104CE00093FD859193FF81916F01853221F4B70186
:104CF00090E0C7D1E8CF512C312C20E02032A0F435
:104D00008B3269F030F4803259F0833269F42061DB
:104D10002CC08D3239F0803339F4216026C02260F6
:104D2000246023C0286021C027FD27C030ED380F44
:104D30003A3078F426FF06C0FAE05F9E300D112469
:104D4000532E13C08AE0389E300D1124332E20627A
:104D50000CC08E3221F426FD5FC1206406C08C3663
:104D600011F4206802C0883641F4F60193FD859164
:104D700093FF81916F018111C1CF982F9F7D955431
:104D8000933028F40C5F1F4FFFE3F9830DC0833687
:104D900031F0833771F0833509F057C021C0F80135
:104DA000808189830E5F1F4F44244394512C54010A
:104DB00014C03801F2E06F0E711CF801A080B180C0
:104DC00026FF03C0652D70E002C06FEF7FEFC501C5
:104DD0002C874CD12C0183012C852F77222E16C0D5
:104DE0003801F2E06F0E711CF801A080B18026FF3F
:104DF00003C0652D70E002C06FEF7FEFC5012C8707
:104E00002AD12C012C852068222E830123FC19C075
:104E1000832D90E048165906A0F4B70180E290E097
:104E200030D13A94F5CFF50127FC859127FE819189
:104E30005F01B70190E025D131103A94F1E04F1AAB
:104E400051084114510479F7DEC0843611F08936D7
:104E500031F5F80127FF07C060817181828193815C
:104E60000C5F1F4F08C060817181882777FD809596
:104E7000982F0E5F1F4F2F76B22E97FF09C0909587
:104E80008095709561957F4F8F4F9F4F2068B22E10
:104E90002AE030E0A40127D1A82EA81843C0853706
:104EA00029F42F7EB22E2AE030E025C0F22FF97FC0
:104EB000BF2E8F36C1F018F4883579F0ADC0803739
:104EC00019F0883721F0A8C02F2F2061B22EB4FE30
:104ED0000DC08B2D8460B82E09C024FF0AC09F2FFF
:104EE0009660B92E06C028E030E005C020E130E031
:104EF00002C020E132E0F801B7FE07C06081718195
:104F0000828193810C5F1F4F06C06081718180E0B8
:104F100090E00E5F1F4FA401E6D0A82EA818FB2D2D
:104F2000FF77BF2EB6FE0BC02B2D2E7FA51450F49D
:104F3000B4FE0AC0B2FC08C02B2D2E7E05C07A2C10
:104F40002B2D03C07A2C01C0752C24FF0DC0FE014F
:104F5000EA0DF11D8081803311F4297E09C022FF02
:104F600006C07394739404C0822F867809F07394FA
:104F700023FD12C020FF06C05A2C731418F4530CE2
:104F80005718732C731460F4B70180E290E02C87FB
:104F900078D073942C85F6CF731410F4371801C0B1
:104FA000312C24FF11C0B70180E390E02C8769D039
:104FB0002C8522FF16C021FF03C088E590E002C0C7
:104FC00088E790E0B7010CC0822F867851F021FD70
:104FD00002C080E201C08BE227FD8DE2B70190E0C4
:104FE00050D0A51430F4B70180E390E04AD05A9431
:104FF000F8CFAA94F401EA0DF11D8081B70190E089
:1050000040D0A110F6CF332009F45DCEB70180E285
:1050100090E037D03A94F7CFF7018681978102C0AC
:105020008FEF9FEF2C960FB6F894DEBF0FBECDBF6B
:10503000DF91CF911F910F91FF90EF90DF90CF9074
:10504000BF90AF909F908F907F906F905F904F90A8
:105050003F902F900895FC01059061507040011021
:10506000D8F7809590958E0F9F1F0895FC01615091
:10507000704001900110D8F7809590958E0F9F1F7A
:1050800008950F931F93CF93DF93182F092FEB01F0
:105090008B8181FD03C08FEF9FEF20C082FF10C086
:1050A0004E815F812C813D81421753077CF4E8815A
:1050B000F9819F012F5F3F4F39832883108306C0FA
:1050C000E885F985812F1995892B29F72E813F8154
:1050D0002F5F3F4F3F832E83812F902FDF91CF9102
:1050E0001F910F910895FA01AA27283051F120311C
:1050F00081F1E8946F936E7F6E5F7F4F8F4F9F4F6C
:10510000AF4FB1E03ED0B4E03CD0670F781F891FAD
:105110009A1FA11D680F791F8A1F911DA11D6A0F7B
:10512000711D811D911DA11D20D009F468943F912E
:105130002AE0269F11243019305D3193DEF6CF012D
:105140000895462F4770405D4193B3E00FD0C9F7F3
:10515000F6CF462F4F70405D4A3318F0495D31FD60
:105160004052419302D0A9F7EACFB4E0A6959795B3
:10517000879577956795BA95C9F700976105710589
:1051800008959B01AC010A2E0694579547953795D3
:105190002795BA95C9F7620F731F841F951FA01D2D
:0651A0000895F894FFCF12
:1051A6000000780580002C010000FF5E00BC00773F
:1051B60001000000000609A51D7209040905097B06
:1051C6001B000000000609A51DF90AEB09FF09DD11
:1051D6000A1F1C1F1E1F1E1F1F1E1F1E1F00000052
:1051E60000F812CC12A112A912BC12CB1225303231
:1051F600642E253032642E2530346420202530324A
:10520600643A253032643A25303264005365747549
:10521600702044533332333152544300556E616229
:105226006C6520746F2073796E63207769746820CB
:1052360074686520525443005254432068617320B9
:10524600736574207468652073797374656D207452
:10525600696D6500727463416C61726D50696E2090
:10526600202000416C61726D312073746174757316
:10527600202000416C61726D322073746174757305
:10528600202000540000000000281CA51D7D1B9650
:105296001B881B071C0D0A006E616E00696E660096
:0652A6006F7666002E0089
:00000001FF
