:10000000E9C1000018C2000016C2000014C20000BE
:1000100012C2000010C200000EC200000CC200009C
:100020000AC200000C94290F0C94010F0C94D90EF5
:1000300002C200000C940914FEC10000FCC10000C3
:10004000FAC10000F8C10000F6C10000F4C10000D0
:10005000F2C10000F0C10000EEC100009FC6000028
:10006000EAC1000069C500003EC50000E4C100000F
:10007000E2C10000E0C10000DEC10000DCC1000000
:10008000DAC10000D8C10000D6C10000D4C1000010
:10009000D2C10000D0C10000CEC100000C94EA0B18
:1000A000CAC10000C8C10000C6C10000C4C1000030
:1000B000C2C10000C0C10000BEC10000BCC1000040
:1000C000BAC10000B8C10000B6C10000B4C1000050
:1000D000B2C10000B0C10000AEC10000ACC1000060
:1000E000AAC1000068036B035A035E036403A20302
:1000F0006F03730379037D03810387038B038F03EE
:10010000A203950399039D03005EBCE2613FDD837A
:10011000C29C7E20A3FD1F419DC3217FFCA2401EE7
:100120005F01E3BD3E6082DC237D9FC1421CFEA0D7
:10013000E1BF5D0380DE3C62BEE0025CDF81633DC7
:100140007C22C09E1D43A1FF4618FAA427799BC5B7
:1001500084DA3866E5BB5907DB856739BAE40658A7
:100160001947A5FB7826C49A653BD987045AB8E697
:10017000A7F91B45C6987A24F8A6441A99C7257B87
:100180003A6486D85B05E7B98CD2306EEDB3510F77
:100190004E10F2AC2F7193CD114FADF3702ECC9267
:1001A000D38D6F31B2EC0E50AFF1134DCE90722C57
:1001B0006D33D18F0C52B0EE326C8ED0530DEFB147
:1001C000F0AE4C1291CF2D73CA947628ABF5174937
:1001D0000856B4EA6937D58B5709EBB536688AD427
:1001E00095CB2977F4AA4816E9B7550B88D6346A17
:1001F0002B7597C94A14F6A8742AC896154BA9F707
:10020000B6E80A54D7896B35000021002400270086
:100210002A002D0030003300010100000401070115
:100220000A0100000A0B02090C0D0E080703040165
:1002300000000000000000000000000000000000BE
:10024000000000000000000000000000000012118B
:10025000100000000000000000000000000000008E
:1002600000000000000000004661696C65642074B5
:100270006F20726561642066726F6D20444854205F
:1002800073656E736F7221004448543232202D2002
:10029000566C686B6F73743D004448543232202DA5
:1002A000205465706C6F74613D00566C686B6F73A1
:1002B000743A20005465706C6F74613A200000003D
:1002C0002200250028002B002E00310034000201FE
:1002D0000000050108010B0100002000230026009A
:1002E00029002C002F00320000010000030106014C
:1002F00009010505050507050808080802020202AC
:100300000A0A0808040404040101010101010101B1
:100310000303030303030303040707070C0C0C0C7C
:100320000C0C0C0C02020202060606060606060665
:100330000B0B0B0B0B0B0B0B0102102020080810F2
:100340002040102040800201020108040201010245
:10035000040810204080804020100804020180041E
:100360000201804020100804020108040201010279
:100370000408102040800102040810204080025030
:100380006F6365742073656E7A6F726F763A004E94
:10039000756D4F6653656E736F72733D0048656C83
:1003A0006C6F203A2D29005254432053796E6368B4
:1003B000726F6E697A656420746F2050432074698F
:1003C0006D653D00293D005465706C6F746120536C
:1003D0002800F21811241FBECFEFD1E2DEBFCDBF3F
:1003E00000E00CBF25E0A6EFB2E001C01D92A738E7
:1003F000B207E1F712E0A0E0B2E0E0E9F8E400E0E3
:100400000BBF02C007900D92A63FB107D9F711E0CC
:10041000CAEED1E000E006C021970109802FFE015D
:100420000E942A20C93ED10780E00807A9F70E9450
:10043000041B0C944624E4CDCF92DF92EF92FF92FE
:100440000F931F93CF93DF936C017A018B01C0E070
:10045000D0E0CE15DF0589F0D8016D918D01D60170
:10046000ED91FC910190F081E02DC6011995892B49
:1004700011F47E0102C02196ECCFC701DF91CF912C
:100480001F910F91FF90EF90DF90CF900895FC01A6
:10049000538D448D252F30E0842F90E0821B930BE9
:1004A000541710F0CF96089501970895FC01918D8F
:1004B000828D981761F0828DDF01A80FB11D5D96C6
:1004C0008C91928D9F5F9F73928F90E008958FEF34
:1004D0009FEF0895FC01918D828D981731F0828DE8
:1004E000E80FF11D858D90E008958FEF9FEF08953F
:1004F000FC01918D228D892F90E0805C9F4F821BA3
:1005000091098F739927089588EC93E0F1DF21E03A
:10051000892B09F420E0822F0895FC01848DDF01EE
:10052000A80FB11DA35ABF4F2C91848D90E0019666
:100530008F739927848FA689B7892C93A089B18955
:100540008C9180648C93938D848D981306C002885F
:10055000F389E02D80818F7D80830895EF92FF9253
:100560000F931F93CF93DF93EC0181E0888F9B8DD6
:100570008C8D981305C0E889F989808185FD23C099
:10058000F62E0B8D10E00F5F1F4F0F731127E02E1B
:100590008C8DE8120BC00FB607FCFACFE889F989F9
:1005A000808185FFF5CFCE01B8DFF2CF8B8DFE01C4
:1005B000E80FF11DE35AFF4FF0820B8FEA89FB89A8
:1005C0008081806207C0EE89FF896083E889F989AC
:1005D00080818064808381E090E0DF91CF911F91E2
:1005E0000F91FF90EF900895CF93DF93EC01888DEA
:1005F0008823C1F0EA89FB89808185FD05C0A8892F
:10060000B9898C9186FD0EC00FB607FCF5CF8081AD
:1006100085FFF2CFA889B9898C9185FFEDCFCE01F6
:100620007CDFE8CFDF91CF91089580E090E0892BC7
:1006300019F06ADF811125C080E090E0892B41F03C
:1006400080E090E0892B21F00E94000081111CC005
:1006500080E090E0892B41F080E090E0892B21F050
:100660000E940000811113C080E090E0892BA1F06E
:1006700080E090E0892B81F00E94000081110AC087
:1006800008950E940000D8CF0E940000E1CF0E9490
:100690000000EACF0C940000089590E0FC0131972F
:1006A000E231F10508F04EC08827EE58FF4F8F4F1A
:1006B0000C942A20809180008F7703C08091800065
:1006C0008F7D80938000089580918000877FF9CF8F
:1006D00084B58F7702C084B58F7D84BD08958091E5
:1006E000B0008F7703C08091B0008F7D8093B00001
:1006F0000895809190008F7707C0809190008F7D42
:1007000003C080919000877F80939000089580912E
:10071000A0008F7707C08091A0008F7D03C08091DB
:10072000A000877F8093A0000895809120018F779B
:1007300007C0809120018F7D03C080912001877FB9
:1007400080932001089521E001C0220F6A95EAF705
:10075000DC011C962C931C971A965C934E93199768
:10076000ED91FC910484F585E02D60E01994DC01A5
:10077000ED91FC910684F785E02D41E0199581E02B
:1007800090E00895FC01278D958DA1A1B2A180A1D3
:10079000213091F4913021F49C918095892302C0FD
:1007A0009C91892B8C93868D8F5F868F178E2489E1
:1007B0003589468957890FC0913019F49C91892B4E
:1007C00003C09C91809589238C9381E0878F208939
:1007D000318942895389A8EEB3E00E94CF1E60831D
:1007E000718382839383808D8823D9F0968D9817A7
:1007F000C0F0168E218D328D438D548D211531051B
:100800004105510559F082E0878FA8EEB3E00E94C0
:10081000CF1E60837183828393830895CF010C94EC
:10082000C6100895CF93DF93FC01808D81110FC016
:1008300081E0808F2089318942895389A8EEB3E015
:100840000E94CF1E60837183828393831CC081309A
:10085000D1F4EF01CF010E94C610EE89FF893097D5
:1008600071F48C899D89009771F0FC01108E1082C3
:10087000118212821382DF91CF910C94E810CE0185
:1008800019958111EECFDF91CF910895EF92FF92EC
:100890000F931F93CF938C01FC01759684E0C0E009
:1008A00060FF02C09081C92B6695815031968111FD
:1008B000F7CF413011F4F8014489F8018585C82B40
:1008C000C42B7801FEE0EF0EF11CF80162896C2B5D
:1008D000C7015ED7F801628960956C23C701CF918B
:1008E0001F910F91FF90EF9053C70F931F93CF93DA
:1008F000DF93062F0F70423019F440E0602F0FC0D5
:10090000142F262FEC0130E0B90184E0759567952E
:100910008A95E1F7CE01BADF412F602FCE01DF913A
:10092000CF911F910F91B2CFFC0184858823A1F054
:10093000218532852115310519F4611106C007C0E2
:100940002130310521F4611102C0858701C015866F
:100950006585CF010E961CC70895FF920F931F93D4
:10096000CF93DF93EC01162F042FF22E8B85888B0B
:100970001092680410926704109266041092650445
:100980000E941B0D888991E09093A6038093C70372
:1009900010926604109265040E944C1191E081113E
:1009A00090E0998B992321F089E694E096D38E8785
:1009B0008989882331F01F861C8260E0CE010E9663
:1009C000E7D62F2D402F612FCE01DF91CF911F91C0
:1009D0000F91FF9007C4DC01ED91FC910190F08133
:1009E000E02D1994EF92FF920F931F93CF93DF9313
:1009F0008C017B01C0E0D0E0F701EC0FFD1F64919A
:100A0000662361F0D801ED91FC910190F081E02D19
:100A1000C8011995892B11F02196EECFCE01DF91F7
:100A2000CF911F910F91FF90EF900895611571057F
:100A300079F0FB0101900020E9F73197AF01461BE7
:100A4000570BDC01ED91FC910280F381E02D1994AC
:100A500080E090E008954F925F926F927F92EF92C4
:100A6000FF920F931F93CF93DF93CDB7DEB7A1977C
:100A70000FB6F894DEBF0FBECDBF7C01FA01CB01EB
:100A800019A2223008F42AE08E010F5D1F4F422E7A
:100A9000512C612C712CBF01A30192010E940820EE
:100AA000F901CA01015011096A3014F4605D01C0F6
:100AB000695CD8016C93232B242B252B61F7B8019B
:100AC000C701B4DFA1960FB6F894DEBF0FBECDBF4D
:100AD000DF91CF911F910F91FF90EF907F906F90DA
:100AE0005F904F9008951F920F920FB60F921124AE
:100AF0000BB60F922F933F934F935F936F937F9318
:100B00008F939F93AF93BF93EF93FF9388EC93E002
:100B100004DDFF91EF91BF91AF919F918F917F91F4
:100B20006F915F914F913F912F910F900BBE0F905E
:100B30000FBE0F901F9018951F920F920FB60F9235
:100B400011240BB60F922F938F939F93EF93FF93E4
:100B5000E091D803F091D9038081E091DE03F09118
:100B6000DF0382FD12C090818091E1038F5F8F735C
:100B70002091E203821751F0E091E103F0E0E853A5
:100B8000FC4F958F8093E10301C08081FF91EF912D
:100B90009F918F912F910F900BBE0F900FBE0F90D2
:100BA0001F901895CF93DF93282F30E0F901EE5D69
:100BB000FD4F8491F901E85CFC4FD491F901EE50AE
:100BC000FD4FC491CC2389F0811167DDEC2FF0E05B
:100BD000EE0FFF1FE852FD4FA591B491EC91ED236C
:100BE00081E090E021F480E002C080E090E0DF91BD
:100BF000CF9108951F93CF93DF93282F30E0F90111
:100C0000EE5DFD4F8491F901E85CFC4FD491F90150
:100C1000EE50FD4FC491CC23C1F0162F81113DDD64
:100C2000EC2FF0E0EE0FFF1FE254FD4FA591B491C1
:100C30008FB7F894111105C09C91ED2FE095E92331
:100C400002C0EC91ED2BEC938FBFDF91CF911F9100
:100C50000895CF93DF9390E0FC01E85CFC4F249172
:100C6000FC01EE50FD4F8491882361F190E0880FE4
:100C7000991FFC01E85FFD4FC591D491FC01E2543E
:100C8000FD4FA591B491611109C09FB7F894888177
:100C9000209582238883EC912E230BC0623061F46F
:100CA0009FB7F8943881822F809583238883EC91B5
:100CB0002E2B2C939FBF06C08FB7F894E8812E2B64
:100CC00028838FBFDF91CF9108953FB7F89480912B
:100CD000FB029091FC02A091FD02B091FE0226B5AC
:100CE000A89B05C02F3F19F00196A11DB11D3FBF64
:100CF000BA2FA92F982F8827820F911DA11DB11DF2
:100D0000BC01CD0142E0660F771F881F991F4A95ED
:100D1000D1F708958F929F92AF92BF92CF92DF92B8
:100D2000EF92FF926B017C01D0DF4B015C01C1149B
:100D3000D104E104F104E9F0C8DFDC01CB0188193A
:100D40009909AA09BB09883E9340A105B10578F32A
:100D500021E0C21AD108E108F10888EE880E83E08C
:100D6000981EA11CB11CC114D104E104F10421F7A7
:100D7000DECFFF90EF90DF90CF90BF90AF909F902D
:100D80008F9008952FB7F8946091F7027091F80250
:100D90008091F9029091FA022FBF08951F920F924D
:100DA0000FB60F9211242F933F938F939F93AF937E
:100DB000BF938091F7029091F802A091F902B0914F
:100DC000FA023091F60223E0230F2D3720F401962A
:100DD000A11DB11D05C026E8230F0296A11DB11D5E
:100DE0002093F6028093F7029093F802A093F90201
:100DF000B093FA028091FB029091FC02A091FD0257
:100E0000B091FE020196A11DB11D8093FB0290934B
:100E1000FC02A093FD02B093FE02BF91AF919F919F
:100E20008F913F912F910F900FBE0F901F901895AB
:100E3000DC01E0E0615038F08D91E827F0E0E85FF8
:100E4000FE4FE491F7CF8E2F0895FC019081018031
:100E5000F281E02DF8948181892B81832281892F71
:100E6000809528232283A7E0B0E01197F1F7218134
:100E700082238183A3E2B0E01197F1F78081789417
:100E8000EFECF0E03197F1F7982381E009F480E08E
:100E90000895FC0190810180F281E02D892F8095D9
:100EA00060FF12C0F8942281822382838181892B82
:100EB0008183A3E2B0E01197F1F78281982B9283AE
:100EC000789487ED90E011C0F89422818223828388
:100ED0008181892B8183AFEFB0E01197F1F7828197
:100EE000982B928378948FE090E00197F1F7089522
:100EF000CF92DF92EF92FF920F931F93CF93DF93E6
:100F00001F92CDB7DEB76C01E62E08E010E0FF249B
:100F1000F39461E08F2D8E2109F460E0C6014983CE
:100F2000B8DFFF0C0150110949810115110589F73E
:100F3000411115C0F894D6011196ED91FC911297CC
:100F400091818C918095892381831196ED91FC91FB
:100F5000129792818C9180958923828378940F9047
:100F6000DF91CF911F910F91FF90EF90DF90CF9085
:100F70000895CF92DF92EF92FF920F931F93CF933A
:100F8000DF931F92CDB7DEB78C01F62E40E065E50A
:100F90007983AEDFCF2C7981D72E760188E0E80EF9
:100FA000F11CF60161916F0140E0C801A1DFCE1490
:100FB000DF04B9F70F90DF91CF911F910F91FF9050
:100FC000EF90DF90CF900895FC0190810180F28135
:100FD000E02DF8948181292F2095822381837894B4
:100FE0008DE743E050E0815021F1DA011197F1F7EC
:100FF00030813923C1F3F8948281822382838181F5
:10100000892B81837894ABE7B7E01197F1F7F894D7
:10101000818128232183A3E1B1E01197F1F7808139
:10102000982381E009F080E07894E3E6F6E03197D8
:10103000F1F70895DC01ED91FC910684F785E02D30
:1010400040E0199461E0F6DF8BE39FE10197F1F74F
:1010500008950895089585ED8093BC008091BC00AB
:1010600084FDFCCF1092A503089540913903262FEB
:1010700030E0240F311D21323105DCF42091A5032D
:101080002430C9F4FC0180E090E0861758F43091D8
:1010900039032191DC01A95EBC4FA30FB11D2C9334
:1010A0000196F3CF80913903680F6093390380E094
:1010B000089581E0089582E008950895E09168041C
:1010C00080916704E81730F4F0E0E25AFC4F808129
:1010D00090E008958FEF9FEF0895909168048091BC
:1010E0006704981750F4E92FF0E0E25AFC4F208192
:1010F00030E09F5F9093680402C02FEF3FEFC9017B
:1011000008958091670490E020916804821B910902
:101110000895CF92DF92EF92FF920F931F93CF9398
:10112000DF937C01262F972F8A018091A6038823C5
:1011300091F0C62FD72F6E01C40ED51ECC15DD053C
:1011400069F06991D701ED91FC910190F081E02D5A
:10115000C7011995F3CF642F822F87DFC801DF9174
:10116000CF911F910F91FF90EF90DF90CF90089556
:10117000CF93DF931F92CDB7DEB769832091A6038B
:101180002223D1F020916504203240F021E030E0AC
:10119000FC013383228380E090E014C080916604D8
:1011A000E82FF0E0E955FC4F998190838F5F8093A1
:1011B00066048093650404C061E0CE01019655DFAA
:1011C00081E090E00F90DF91CF910895089580E045
:1011D00090E00895982F92959F702AEF929F800D2E
:1011E000112408950F931F93CF93DF93EC014230A6
:1011F00018F08C8188608C834F836887222329F0C4
:10120000413019F48C8184608C8364E670E080E066
:1012100090E080DD6C8164FD31C0E881F981068455
:10122000F785E02D42E063E0CE0119958BE496E46A
:101230000197F1F7E881F9810684F785E02D42E016
:1012400063E0CE01199503E512E0C8010197F1F7BB
:10125000E881F9810684F785E02D42E063E0CE0164
:101260001995C8010197F1F7E881F9810684F7859E
:10127000E02D42E062E0CE01199514C06062CE011B
:10128000D9DE8BE496E40197F1F76C816062CE01C0
:10129000D1DE03E512E0C8010197F1F76C816062CD
:1012A000CE01C8DEC8010197F1F76C816062CE0102
:1012B000C1DE8BEE90E00197F1F784E08D836CE066
:1012C000CE01B8DECE01BEDE82E08E8366E0CE01C6
:1012D000B1DEE881F9810484F585E02D6FEFCE0160
:1012E000DF91CF911F910F9119944F925F926F925E
:1012F0007F928F929F92AF92BF92CF92DF92EF92A6
:10130000FF920F931F93CF93DF9381E08093A60307
:1013100088E68093C703109266041092650460E02B
:1013200089E694E025DFB8D7882331F080930E0357
:1013300060E070E0CB01CAC067E088E60E94C1119E
:10134000109268048093670489E694E0C6DE8F7784
:1013500041DF582E89E694E0C0DE3CDF682E89E646
:1013600094E0BBDE8F7B36DF782E89E694E0B5DE35
:1013700089E694E0B2DE2EDF482E89E694E0ADDE09
:101380008F7728DF082F89E694E0A7DE23DFEEE1E0
:10139000E80FAE2FB0E020E833E341EE51E00E94C9
:1013A000CF1E4B015C0122EB37E0FD01C4E6D0E02B
:1013B00080E9E82EFF24F394C901825B97408E17E1
:1013C0009F07DCF4C90183709927892B99F4C9011F
:1013D000BE010E94F51F892B31F4C901B7010E949B
:1013E000F51F892B39F480E8880E81E5981E81E08D
:1013F000A81EB11C2F5F3F4FDFCFEE54F84FCF0137
:1014000064E670E00E94F51F7C01CF0160E971E0A5
:101410000E94F51F6C01C1E0D0E010E0E370FF27EF
:10142000C017D10724F5C230D10581F4309771F48B
:10143000E114F10419F4C114D10441F480E8880ED8
:101440008BE3981E86E2A81EB11C0FC0DE01AA5FC6
:10145000BD4FAC91B0E020E831E541E050E00E94A2
:10146000CF1E860E971EA81EB91E2196D9CF272DF6
:1014700030E0A0E1BEE00E94D91E6B017C01262D68
:1014800030E0ACE3B0E00E94D91EDC01CB018C0D52
:101490009D1DAE1DBF1D6C017D01C50CD11CE11C45
:1014A000F11CA42DB0E0119720E831E541E050E0B7
:1014B0000E943220DC01CB018C0D9D1DAE1DBF1D95
:1014C000BC01CD01680D791D8A1D9B1DDF91CF9157
:1014D0001F910F91FF90EF90DF90CF90BF90AF9052
:1014E0009F908F907F906F905F904F900895CF92D4
:1014F000DF92EF92FF926A017B01682F80E0E8D7CC
:1015000064EB72E089ED94E06DDA22E0B701A601A8
:1015100089ED94E0FF90EF90DF90CF900C94A814A9
:10152000CF92DF92EF92FF9240910A0350910B030A
:1015300060910C0370910D0381E090E0D8DFC090C2
:101540000603D0900703E0900803F090090362E0DF
:1015500080E0BED76AEA72E089ED94E043DA22E0E7
:10156000B701A60189ED94E00E94A81481E0FF90E4
:10157000EF90DF90CF9008950F931F93CF93DF9359
:1015800000E010E0C0E0D0E0809157059091580550
:10159000C817D90784F42196E0915505F0915605B6
:1015A000E00FF11F4081518162817381CE019FDF85
:1015B0000C5F1F4FE9CF81E0DF91CF911F910F9119
:1015C00008958F929F92AF92BF92CF92DF92EF9247
:1015D000FF92CF93C5D78823B1F180910C058B3052
:1015E00041F188F18551823070F56091060570E017
:1015F00080E090E00E94BA1D20E030E040E853E433
:101600000E941B1E6B017C0180910705682F70E012
:1016100080E090E00E94BC1D9B01AC01C701B601B7
:101620000E94E91E2DEC3CEC4CEC5DE30E941B1E7D
:1016300007C06091060570E080E090E00E94BA1D4E
:101640004B015C0106C0812C912C90ECA92E9FE7E8
:10165000B92E8092060390920703A0920803B092DD
:1016600009037ED7882309F441C080910C058B3093
:1016700029F0E0F18551823058F038C060910805BA
:1016800070E080E090E00E94BA1D6B017C0134C0E4
:10169000C09108056C2F6F7770E080E090E00E94A9
:1016A000BC1D20E030E040E853E40E941B1E6B01AB
:1016B0007C0180910905682F70E080E090E00E9435
:1016C000BC1D9B01AC01C701B6010E94E91E2DECB7
:1016D0003CEC4CEC5DE30E941B1E6B017C01C7FFE0
:1016E0000BC0F7FAF094F7F8F09406C0C12CD12C97
:1016F00080ECE82E8FE7F82EC0920A03D0920B03FD
:10170000E0920C03F0920D03A5019401C501B40110
:101710000E94E51F811108C0A7019601C701B6010B
:101720000E94E51F882379F068E672E088EC93E078
:1017300059D9CF91FF90EF90DF90CF90BF90AF90AD
:101740009F908F90FCC369E972E088EC93E04AD9DE
:1017500060910A0370910B0380910C0390910D032B
:10176000F4D368E872E088EC93E03CD9609106031A
:10177000709107038091080390910903CF91FF9026
:10178000EF90DF90CF90BF90AF909F908F90DDC390
:10179000FC0123812223A9F0918190956923608324
:1017A000828191E09093A6038093C7031092660410
:1017B0001092650489E694E0DBDC6ED5282F30E0DA
:1017C00002C020E030E081E090E0232B11F080E0C7
:1017D00090E008951F920F920FB60F9211240BB64E
:1017E0000F922F933F934F935F936F937F938F93BA
:1017F0009F93AF93BF93EF93FF938091B900887F3E
:10180000803609F49CC068F5883209F45BC090F416
:10181000803109F454C038F4882309F4F6C08830C4
:1018200009F44DC0F5C0883109F44CC0803209F488
:101830005DC0EEC0803409F468C048F4803309F418
:1018400055C0883309F0E4C08093A303D8C0803525
:1018500009F44FC0883509F45DC0883409F0D8C058
:10186000D6C0883909F4C7C0A8F4883709F467C01E
:1018700038F4883609F463C0803709F460C0C8C002
:10188000883809F4B8C0803909F45FC0803809F09D
:10189000BFC05BC0803B09F486C038F4803A09F4CD
:1018A00066C0883A09F47FC0B3C0803C09F4A7C081
:1018B000883C09F4A4C0883B09F48AC0A9C080917F
:1018C000800310C09091A2038091A103981770F536
:1018D000E091A20381E08E0F8093A203F0E0EF5726
:1018E000FC4F80818093BB0085EC86C08093A3036E
:1018F0008EC0E091A20381E08E0F8093A2038091BD
:10190000BB00F0E0EF57FC4F80839091A2038091E1
:10191000A1036EC0E091A20381E08E0F8093A20329
:101920008091BB00F0E0EF57FC4F80838091A403CF
:1019300081116DC081E080937F0384EA61C083E000
:101940008093A50310925D03CFCF80915D03803219
:1019500008F051C0E0915D0381E08E0F80935D033C
:101960008091BB00F0E0E35CFC4F8083BDCF85EC51
:101970008093BC001092A50380915D03803230F407
:10198000E0915D03F0E0E35CFC4F108260915D0349
:1019900070E0E0913B03F0913C038DE393E01995F7
:1019A00010925D0335C084E08093A50310923A0342
:1019B00010923903E0913703F09138031995809123
:1019C0003903811105C081E0809339031092170318
:1019D000E0913A0381E08E0F80933A03F0E0E95EF4
:1019E000FC4F80818093BB0090913A038091390332
:1019F000981708F479CF85E88093BC0009C085EC7E
:101A00008093BC001092A50303C01092A30323DBB4
:101A1000FF91EF91BF91AF919F918F917F916F91C6
:101A20005F914F913F912F910F900BBE0F900FBE82
:101A30000F901F9018951092A50381E08093A40346
:101A400010927F0361E084E1D5D861E085E1D2D8CE
:101A5000E9EBF0E080818E7F808380818D7F8083C1
:101A600088E48093B80085E48093BC000895609377
:101A70004D0570934E0580934F0590935005DC0102
:101A8000CB01845D9E4FAF4FBF4F8093490590932C
:101A90004A05A0934B05B0934C0582E090E09093EB
:101AA0005405809353056ED9609313037093140308
:101AB00080931503909316030895CF92DF92EF92CF
:101AC000FF920F931F935ED9C0901303D09014031D
:101AD000E0901503F09016038B019C010C191D0971
:101AE0002E093F0980914D0590914E05A0914F051B
:101AF000B0915005083E134021053105D0F0019604
:101B0000A11DB11D80934D0590934E05A0934F05E7
:101B1000B0935005B701A60148515C4F6F4F7F4FFE
:101B200040931303509314036093150370931603AB
:101B3000CACF4091490550914A0560914B0570917B
:101B40004C0584179507A607B70780F1E09151056A
:101B5000F0915205309751F1199561157105810584
:101B6000910511F084DF22C080914D0590914E05C2
:101B7000A0914F05B0915005845D9E4FAF4FBF4F70
:101B80008093490590934A05A0934B05B0934C056B
:101B900081E090E02091530530915405232B11F4FE
:101BA00080E090E0909354058093530560914D053B
:101BB00070914E0580914F05909150051F910F91A6
:101BC000FF90EF90DF90CF9008956F927F928F9269
:101BD0009F92AF92BF92CF92DF92EF92FF920F93BC
:101BE0001F93CF93DF93EA012CE3C22ED12CE12C7B
:101BF000F12CA70196010E9408206883CA01B9014F
:101C0000A70196010E9408206983CA01B90128E151
:101C100030E040E050E00E94082069017A016A83C8
:101C2000CA01B9016C5F7F4F8F4F9F4F27E030E0B3
:101C300040E050E00E9408206F5F6B83812C912C64
:101C4000540140E034E6632E712C00E911E0242FAA
:101C500030E02E54384FF901E370FF27309789F4B4
:101C6000C901B3010E94F51F892B31F4C901B801E4
:101C70000E94F51F892B29F48EE691E0A0E0B0E0E8
:101C800004C08DE691E0A0E0B0E0880E991EAA1E87
:101C9000BB1ED501C401AA27BB27C816D906EA0670
:101CA000FB0610F04F5FD3CF4E83309799F4C901F4
:101CB00064E670E00E94F51F892B39F4C90160E9E0
:101CC00071E00E94F51F892B29F48EE691E0A0E0D7
:101CD000B0E004C08DE691E0A0E0B0E0881A990A77
:101CE000AA0ABB0AC818D908EA08FB08C90164E6B1
:101CF00070E00E94F51F8C01C90160E971E00E944B
:101D0000F51FA7E0B2E020E0213041F4309751F414
:101D10000115110529F4009729F402C04C9103C064
:101D20004DE101C04CE150E060E070E0C416D50622
:101D3000E606F70640F0C41AD50AE60AF70A2F5F4E
:101D400011962C3009F72F5F2D83C394CC82DF913D
:101D5000CF911F910F91FF90EF90DF90CF90BF90A8
:101D6000AF909F908F907F906F900895CF92DF9269
:101D7000EF92FF92C0900F03D0901003E0901103F8
:101D8000F09012036C157D058E059F0569F06B01BF
:101D90007C014FEF52E019DFC0920F03D092100385
:101DA000E0921103F0921203FF90EF90DF90CF903A
:101DB00008951F920F920FB60F9211240BB60F9237
:101DC0002F933F934F935F936F937F938F939F9343
:101DD000AF93BF93EF93FF9382E0FED4FF91EF9117
:101DE000BF91AF919F918F917F916F915F914F9133
:101DF0003F912F910F900BBE0F900FBE0F901F9031
:101E000018951F920F920FB60F9211240BB60F92D6
:101E10002F933F934F935F936F937F938F939F93F2
:101E2000AF93BF93EF93FF9381E0D6D4FF91EF91EF
:101E3000BF91AF919F918F917F916F915F914F91E2
:101E40003F912F910F900BBE0F900FBE0F901F90E0
:101E500018951F920F920FB60F9211240BB60F9286
:101E60002F933F934F935F936F937F938F939F93A2
:101E7000AF93BF93EF93FF9380E0AED4FF91EF91C8
:101E8000BF91AF919F918F917F916F915F914F9192
:101E90003F912F910F900BBE0F900FBE0F901F9090
:101EA00018958F929F92AF92BF92CF92DF92EF924E
:101EB000FF92CF93DF93A0910D05882311F03A2F65
:101EC00001C030E080910E0590E0880F991F885284
:101ED0009D4FC0901305D0901405E0901505F0902B
:101EE000160540E050E0BA01FC01C591D49128816B
:101EF0002A2323130FC04A015B012FEF821A920A93
:101F0000A20AB20A4C155D056E057F0538F4B501CD
:101F1000A401EACF342F252FCB0104C030E020E00C
:101F200080E090E0632F722FDF91CF91FF90EF90D0
:101F3000DF90CF90BF90AF909F908F90089561E514
:101F400072E088EC93E00C941605CF93DF93AB011D
:101F5000BC0122E088EC93E0FBD4EC01F0DF8C0FB5
:101F60009D1FDF91CF910895CF92DF92EF92FF9264
:101F70000F931F93CF93DF936B01770FEE08FF084A
:101F8000F7FE1BC0EC016DE20E94EB048C014427BC
:101F90005527BA014C195D096E097F092AE0CE0167
:101FA0000E942B05800F911FDF91CF911F910F9100
:101FB000FF90EF90DF90CF9008952AE0B701A6013F
:101FC000DF91CF911F910F91FF90EF90DF90CF9015
:101FD0000C942B05AF92BF92CF92DF92EF92FF92BB
:101FE0000F931F93CF93DF938B01BC018091F80473
:101FF0009091F9040E94B90740E06EEB8091F804DB
:102000009091F9040E947807E801680189E0C80E00
:10201000D11CA090F804B090F90488E0E82EF12CCF
:1020200001E010E0C5010E9425078111102B000F6F
:1020300081E0E81AF108B1F71993CC15DD0549F7ED
:102040008091F8049091F9040E94E40791E08130B6
:1020500009F090E0892FDF91CF911F910F91FF90B0
:10206000EF90DF90CF90BF90AF900895AF92BF9266
:10207000CF92DF92EF92FF920F931F93CF93DF9354
:102080001F92CDB7DEB75C01D62EE72EFC01858509
:10209000811105C0C5010E94E407811106C0F50148
:1020A00013861586148680E065C040E060EFC501A8
:1020B0000E94780701E0F12CC12C11E0C5010E94BB
:1020C0002507682FC50169830E9425076981613052
:1020D00019F48130B9F433C04F2D50E068131BC0A0
:1020E000F5018385181730F4E40FF51F83818023F1
:1020F00049F402C0181731F060E0193058F4F501C6
:10210000148708C0F501EF0DF11D8381802B8383B7
:1021100061E009C0C12EF501E40FF51F9381802F06
:10212000809589238383C5010E9449071F5F000FA3
:1021300011F4F39401E0F7E0FF1508F0BFCF11347C
:1021400008F4ADCFF501C386C11002C081E08587D8
:10215000F5018381882309F4A2CFD5011396ED2DD3
:10216000FE2D9501255F3F4F8D918193A217B307F7
:10217000D9F781E00F90DF91CF911F910F91FF90E0
:10218000EF90DF90CF90BF90AF900895E0917504ED
:10219000F09176043097D9F0E817F90741F4868575
:1021A000978590937604809375040895F9012685A8
:1021B00037852115310559F028173907B9F7DC01A2
:1021C0001E968D919C911F979787868708950895F5
:1021D0000F931F93CF93DF93EC01D8DFE091750449
:1021E000F0917604309729F4D0937604C093750467
:1021F00008C086859785009711F0FC01FACFD78734
:10220000C6870E946506088119812A813B81DC010D
:10221000CB01801B910BA20BB30B8C839D83AE83F0
:10222000BF831F861E86DF91CF911F910F91089566
:10223000CF92DF92EF92FF92CF93DF936C01990FD1
:10224000EE08FF08F7FE16C06DE288EC93E00E94EE
:10225000EB04EC0144275527BA014C195D096E09BE
:102260007F092AE088EC93E00E942B057C01EC0EAC
:10227000FD1E08C02AE0B701A60188EC93E00E9489
:102280002B057C015CDE8E0D9F1DDF91CF91FF90B1
:10229000EF90DF90CF900895209165049091C7034F
:1022A000213208F04AC08091A5038111FCCF32E0B1
:1022B0003093A50331E03093A4033FEF3093A303A1
:1022C0001092A2032093A103A7EAB3E041E853E0F0
:1022D000FA013E2F341B321718F43D913193F9CF98
:1022E0001092800320918003990F922B909380038A
:1022F00090917F03913061F410927F03909180035D
:102300009093BB009091BC0093FDF8CF95EC01C079
:1023100095EE9093BC009091A5039230E1F39091DB
:10232000A3039F3F79F08091A303803241F0809115
:10233000A303803331F084E005C081E003C082E074
:1023400001C083E010926604109265041092A60307
:102350000895CF93C62F91E09093A60398E69093AB
:10236000C7031092660410926504682F89E694E012
:102370000E94B8086C2F89E694E00E94B808CF91BB
:102380008BCF9091A5039111FCCF91E09093A50381
:102390009093A4032FEF2093A3031092A203260F80
:1023A0002093A1039093800390918003880F892B41
:1023B0008093800380917F03813061F410927F03CA
:1023C000809180038093BB008091BC0083FDF8CF97
:1023D00085EC01C085EE8093BC008091A50381301F
:1023E000E1F38091A203861710F46091A203A1E8A3
:1023F000B3E02EE533E0F9018E2F821B861718F427
:102400008D918193F9CF862F08950F931F93CF93CA
:102410008B0191E09093A60398E69093C7031092E6
:10242000660410926504682F89E694E00E94B8085B
:1024300033DFC82F81110DC061E088E6A2DF109262
:1024400068048093670489E694E00E946D08F801AF
:1024500080838C2FCF911F910F9108950F931F931D
:102460000E94C2066093D0037093D1038093D2037D
:102470009093D303E091C803F091C9030484F585D8
:10248000E02D88EC93E0199597FF1FC00E94C206CB
:102490000091D0031091D1032091D2033091D30346
:1024A000DC01CB01801B910BA20BB30B0091CC0381
:1024B0001091CD032091CE033091CF038017910767
:1024C000A207B307B8F28FEF9FEF1F910F91089506
:1024D000CF93DF93CDB7DEB728970FB6F894DEBF62
:1024E0000FBECDBF1D8290E49E8324E12F8324E59F
:1024F000288719829A8390E19B8390E59C83909131
:10250000E004691710F06FEF690F4091E104262F86
:1025100030E0FE01E20FF31F403121F4943011F45A
:10252000918101C09581682F690F606889ED94E001
:1025300028960FB6F894DEBF0FBECDBFDF91CF91C6
:102540000C941A08CF93DF93BC0188EC93E00E94AF
:102550001605EC01F4DC8C0F9D1FDF91CF910895DF
:10256000CF92DF92EF92FF920F931F93CF93DF935F
:10257000CDB7DEB7C054D1400FB6F894DEBF0FBE62
:10258000CDBF0E94C20600910F0510911005209149
:102590001105309112056B017C01C01AD10AE20AC3
:1025A000F30A40EDC41647E0D406E104F10418F440
:1025B00080911705B8C060930F0570931005809344
:1025C00011059093120510920A05109209051092B8
:1025D0000805109207051092060561E080910B0531
:1025E0000E94FA056AEF70E080E090E00E948A069F
:1025F00061E080910B050E94290660E080910B0547
:102600000E94FA0564E170E080E090E00E948A0692
:10261000F89461E080910B050E94FA058BE990E047
:102620000197F1F762E080910B050E94290683E291
:1026300090E00197F1F780E034DC672B682B692B81
:1026400021F41092170578943BC081E02ADC672BB7
:10265000682B692BB1F38E010F5F1F4F6E018FEB5B
:10266000C81A8EEFD80A780180E01BDCF70160837E
:1026700071838283938381E014DCF7016483758323
:1026800086839783F8E0EF0EF11CEC14FD0461F7EC
:10269000789420E030E0F8014081518162817381BB
:1026A000C480D580E680F78041155105610571052C
:1026B00029F0C114D104E104F10421F410921705AA
:1026C00080E031C0F90183E0F595E7958A95E1F75F
:1026D000EA5FFA4F8081880F4C155D056E057F0516
:1026E00008F4816080832F5F3F4F085F1F4F2832BF
:1026F000310589F620910A0530E040910605809168
:10270000070590E0840F911D40910805840F911DED
:1027100040910905840F911D99272817390771F6F3
:1027200081E080931705C05CDE4F0FB6F894DEBFE2
:102730000FBECDBFDF91CF911F910F91FF90EF9012
:10274000DF90CF9008950F931F93CF93DF93CDB772
:10275000DEB729970FB6F894DEBF0FBECDBFFC01E0
:102760002081203159F18C018091F8049091F90475
:102770000E94E407882301F1BE016F5F7F4FC8010B
:1027800029DC8823C9F068E0CE0101960E94180771
:102790009985891311C08D818F3361F020F48F31B9
:1027A00059F489E00CC08F3519F08F3739F004C027
:1027B0008BE005C08AE003C080E001C08CE0299670
:1027C0000FB6F894DEBF0FBECDBFDF91CF911F9142
:1027D0000F9108950E9479211F93CF93DF93182FB3
:1027E000C0915D05D0915E05209779F08B818113B2
:1027F00008C0E881F9810190F081E02D612FCE01C0
:1028000019950C80DD81C02DEFCFDF91CF911F9105
:1028100008951F920F920FB60F9211240BB60F92CC
:102820002F933F934F935F936F937F938F939F93D8
:10283000AF93BF93EF93FF938091620590916305EF
:10284000A0916405B0916505892B8A2B8B2B59F1DA
:1028500080916105E0915F05F09160059081892785
:1028600080838091620590916305A0916405B09189
:102870006505181619061A061B060CF056C080913D
:10288000620590916305A0916405B091650501977B
:10289000A109B1098093620590936305A093640533
:1028A000B093650542C080910002EEE7F3E0E49149
:1028B0009FEF90930002E230C9F050F4EE2399F0BC
:1028C000E13081F590916F009D7F90936F002AC059
:1028D000E43019F1E0F0E53029F5909173009D7F27
:1028E000909373001FC010926E001CC090917000F6
:1028F0009D7F9093700091E09093B0009091B10013
:10290000987F94609093B1001092B3000BC09091A7
:1029100071009D7F9093710005C0909172009D7F22
:102920009093720060E00E94FA05FF91EF91BF91D1
:10293000AF919F918F917F916F915F914F913F9157
:102940002F910F900BBE0F900FBE0F901F901895F8
:102950004F925F926F927F928F929F92AF92BF92AF
:10296000CF92DF92EF92FF92CF93DF93EC016A0157
:102970007B01B22E9A01AB01C701B6010E94E51F8F
:10298000882319F06CE972E027C026013701E8942A
:1029900077F82FEF3FEF4FE75FE7C301B2010E94E7
:1029A000E51F81110DC02FEF3FEF4FE75FE7C30138
:1029B000B2010E94B61D18161CF460EA72E00CC049
:1029C0002FEF3FEF4FE75FE4C701B6010E94E11F21
:1029D00018169CF464EA72E0CE01DF91CF91FF906B
:1029E000EF90DF90CF90BF90AF909F908F907F90AF
:1029F0006F905F904F900C9416052FEF3FEF4FE7CD
:102A00005FECC701B6010E94B61D87FDE3CF20E051
:102A100030E0A901C701B6010E94B61D87FF0AC0B8
:102A20006DE2CE010E94EB044C01F7FAF094F7F846
:102A3000F09402C0812C912CA12C60E070E080E029
:102A40009FE3AB1441F020E030E040E251E40E940B
:102A50004D1FA394F6CF9B01AC01C701B6010E94A4
:102A6000E91E2B013C010E94B51F6B017C010E94F5
:102A7000BA1D9B01AC01C301B2010E94E81E2B01EB
:102A80003C012AE0B701A601CE010E942B057C0182
:102A9000E80CF91CBB2031F06EE2CE010E94EB0481
:102AA000E80EF91EDB2CDD2029F120E030E040E2C9
:102AB00051E4C301B2010E941B1E2B013C010E9484
:102AC000B51F4B01A12CB12C2AE0B501A401CE0108
:102AD0000E942B05E80EF91EC501B4010E94BA1D23
:102AE0009B01AC01C301B2010E94E81E2B013C0115
:102AF000DA94D9CFC701DF91CF91FF90EF90DF90AB
:102B0000CF90BF90AF909F908F907F906F905F908D
:102B10004F9008958F929F92AF92BF92CF92DF9283
:102B2000EF92FF920F931F93CF93DF93CDB7DEB752
:102B300061970FB6F894DEBF0FBECDBF8091F80449
:102B40009091F9040E94E40740E06CEC8091F80455
:102B50009091F9040E9478074091F20464E4809116
:102B6000F8049091F9040E9478078091F404882376
:102B7000D9F1E091F304E950E33040F4F0E0EE0FD6
:102B8000FF1FE55BFD4F0081118102C00EEE12E0D8
:102B90008091F504882311F18091F20481111EC007
:102BA0000E94C2064B015C016801110FEE08FF088C
:102BB0008091F8049091F9040E9425078130A1F0DA
:102BC0000E94C206DC01CB018C199D09AE09BF0928
:102BD00088159905AA05BB0558F306C0B801110F61
:102BE000880B990B0E948A06E12CF12C00E010E082
:102BF0008091570590915805081719070CF0AEC041
:102C0000C0905505D0905605CE0CDF1CA02EE0914B
:102C1000F804F091F904138615861486DF011B96DB
:102C200033961E92AE17BF07E1F7B12CBE01665F67
:102C30007F4F8091F8049091F90418DA882369F0A5
:102C4000BA1008C067E0CE010A960E941807998959
:102C5000891769F1B394AB1448F760E070E08EEF28
:102C600092ECF601608371838283938367EC73E057
:102C700088EC93E00E94F204B80188EC93E074D9E8
:102C800064EC73E088EC93E00E94F204E091550557
:102C9000F0915605EE0DFF1D608171818281938157
:102CA00054D90F5F1F4FF4E0EF0EF11CA1CF8091BC
:102CB000F8049091F9040E94E4078823E9F1BE0129
:102CC0006F5F7F4FCE010A9685D98823A9F168E00E
:102CD000CE0101960E941807998589132DC069813C
:102CE00048E0649FB00111248A81282F30E0322F00
:102CF0002227330F330F330F262B372B8A85803152
:102D0000C9F4688570E08F81FB01E81BF109CF01F0
:102D10009695982F8827979587950E94F51F605163
:102D20007109207F53E0220F331F5A95E1F7620F9C
:102D3000731F04C0B90102C060E874EE6138F4EE9C
:102D40007F070CF48ACF072E000C880B990B14D741
:102D500020E030E040E05CE36ED783CF61960FB6B1
:102D6000F894DEBF0FBECDBFDF91CF911F910F91C1
:102D7000FF90EF90DF90CF90BF90AF909F908F909B
:102D800008958F929F92AF92BF92CF92DF92EF926F
:102D9000FF920F931F93CF93DF93CDB7DEB76A9760
:102DA0000FB6F894DEBF0FBECDBF8091590590914C
:102DB0005A05A0915B05B0915C0540917F0550914B
:102DC000800560918105709182058C019D01041B35
:102DD000150B260B370BB901A801493E534061057D
:102DE000710508F459C080937F0590938005A093E6
:102DF0008105B09382050E9475094B015C010E9418
:102E0000B60EC090FF02C501B4010E94B60ED0906C
:102E10000003C501B4010E94B60E00910103C50173
:102E2000B4010E94B60EE0900503F12C2EE4E21AE4
:102E300028EFF20AC501B4010E94B60E10910403F6
:102E4000C501B4010E94B60E1F92CF921F92DF926D
:102E50001F920F93FF92EF921F921F938091030393
:102E60001F928F9388EA92E09F938F938E010F5F5A
:102E70001F4F1F930F930E947D21C80163DB60E009
:102E800080E026DBB80189ED94E00E9416050FB6BC
:102E9000F894DEBF0FBECDBF0E94C20660935905F5
:102EA00070935A0580935B0590935C0588EC93E0E2
:102EB0000E947802892B09F422C10E94C206609305
:102EC000D0037093D1038093D2039093D303E09106
:102ED000C803F091C9030284F385E02D88EC93E0E8
:102EE000199597FD06C08435910539F780E090E08B
:102EF0001FC00E94C2060091D0031091D1032091FF
:102F0000D2033091D303DC01CB01801B910BA20BC8
:102F1000B30B0091CC031091CD032091CE033091DF
:102F2000CF0380179107A207B30788F28FEF9FEFB7
:102F3000892B09F0E4C092DAFC0197FD11C08D32B3
:102F4000910591F0C0970A9778F0E091C803F0914D
:102F5000C9030284F385E02D88EC93E01995EBCF4B
:102F6000C12CD12C76012CC020E030E0A90110E06A
:102F7000E130F10509F002C1E091C803F091C90305
:102F80000284F385E02D88EC93E02F8B388F498FF6
:102F90005A8F199563DAFC01C0972F89388D498DB6
:102FA0005A8D0A9728F3E130F10511F3112309F442
:102FB00003C1CC24DD247601C21AD30AE40AF50A3F
:102FC00090ECC9169FECD90692EEE90690E5F90659
:102FD00018F4C12CD12C7601C701B6010E94370D1F
:102FE000C114D104E104F10409F489C0AE014F5FBA
:102FF0005F4FC701B6010E94E50D81E08093A603F3
:1030000088E68093C703109266041092650460E01E
:1030100089E694E00E94B80829811AE0822F612F86
:10302000D8D7682F660F860F682F660F620F89E664
:1030300094E00E94B8082A81822F612FCAD7682F96
:10304000660F860F682F660F620F89E694E00E9474
:10305000B8082B81822F612FBCD7682F660F860F8F
:10306000682F660F620F89E694E00E94B8086C81B1
:1030700089E694E00E94B8082D81822F612FA9D79C
:10308000682F660F860F682F660F620F89E694E03F
:103090000E94B8082E81822F612F9BD7682F660F60
:1030A000860F682F660F620F89E694E00E94B808C9
:1030B0002F812E51822F612F8CD7682F660F680FBA
:1030C000660F620F89E694E00E94B808E5D8BE0159
:1030D0006A5E7F4F8FE099D96E896F778FE039D91B
:1030E00067EA73E088EC93E00E94F2042AE0B701FB
:1030F000A60188EC93E00E942B050E949F0F8AE0B6
:103100000E94D205892B09F05AC067EC72E088EC66
:1031100093E00E9416058AE00E94D20589D866EDE8
:1031200072E088EC93E00E941605BE016F5F7F4F4E
:103130008FE06BD9698160FF05C06E7F8FE009D990
:1031400081E001C080E090E073D866EE72E088EC28
:1031500093E00E941605BE016F5F7F4F8FE055D947
:10316000698161FF05C06D7F8FE0F3D881E001C008
:1031700080E090E05DD80E949F0F21C0ED32F10504
:10318000C9F0CF01C0970A9708F0F6CEAAE0B0E0E8
:1031900006D66F01FF0FEE08FF08DC01CB018C0D96
:1031A0009D1DAE1DBF1D9C01AD012053310941097C
:1031B0005109E2CE11E0E0CE69017A0101CF6A96B1
:1031C0000FB6F894DEBF0FBECDBFDF91CF911F9138
:1031D0000F91FF90EF90DF90CF90BF90AF909F90B6
:1031E0008F900895CF93DF931092CB031092CA0370
:1031F00088EE93E0A0E0B0E08093CC039093CD0301
:10320000A093CE03B093CF0327E132E03093C903FC
:103210002093C80325EC30E03093D5032093D403EA
:1032200024EC30E03093D7032093D60320EC30E039
:103230003093D9032093D80321EC30E03093DB03A3
:103240002093DA0322EC30E03093DD032093DC039B
:1032500026EC30E03093DF032093DE031092E1038D
:103260001092E2031092E3031092E40310926C04B4
:1032700010926B0480936D0490936E04A0936F047E
:10328000B093700489E292E090936A048093690499
:1032900010926804109267041092660410926504FC
:1032A0000E941B0D80E280930B0586E180930C0544
:1032B000E8E5F3E0E491E0930D05E2E1F3E0E49169
:1032C000E0930E0580E89EE3A0E0B0E08093130554
:1032D00090931405A0931505B093160560E08EE158
:1032E0000E942906E6E5F3E0E491E0933B05E0E186
:1032F000F3E0E491F0E0EE0FFF1FE852FD4F8591FF
:10330000949190933D0580933C0510924605109250
:10331000480510924705E6E4F5E0129285E0EE33A9
:10332000F807D9F78BE395E09093F9048093F804BC
:103330001092F6041092F7041092F20489E0809340
:10334000F304C1E0C093F404C093F50410920505A2
:10335000109204051092DC041092DB048BE392E0DF
:103360009093DA048093D9041092E9048FEF80934C
:10337000E8041092E7041092EA0487E28093E404E0
:103380001092E5041092E6041092E3041092E20415
:1033900084E08093EB04D2E0D093EC04C093ED047E
:1033A00080E18093EE0480E28093EF0480E48093D8
:1033B000F00480E88093F10440E050E063E089EDA0
:1033C00094E00E94A3031092C9041092CA041092C0
:1033D000CB041092CC0481EC96E19093D6048093B8
:1033E000D5041092CD041092CE041092CF04109206
:1033F000D0041092D8041092D70480E097E8A3E993
:10340000B3E08093B9049093BA04A093BB04B09343
:10341000BC042AE835E13093C6042093C504109219
:10342000BD041092BE041092BF041092C00410920A
:10343000C8041092C7048093A9049093AA04A0938F
:10344000AB04B093AC0481EE9AE09093B604809301
:10345000B5041092AD041092AE041092AF04109215
:10346000B0041092B8041092B70440E854E86EE13A
:1034700070E0409390045093910460939204709391
:10348000930422E134E030939D0420939C04109235
:10349000940410929504109296041092970410923E
:1034A0009F0410929E0480ED97E0A0E0B0E080932E
:1034B000A0049093A104A093A204B093A304ECEB06
:1034C000FAE0F093A704E093A6041092A5041092EA
:1034D000A404409377045093780460937904709324
:1034E0007A04309384042093830410927B04109216
:1034F0007C0410927D0410927E0410928604109237
:1035000085048093870490938804A0938904B093E2
:103510008A0480E99AE090938E0480938D0480E978
:1035200094E090938C0480938B0480E49DE0A3E06E
:10353000B0E08093180590931905A0931A05B093F5
:103540001B0582EC93E0909325058093240510924F
:103550001C0510921D0510921E0510921F05109259
:1035600027051092260588EC90E0A0E0B0E080935B
:10357000280590932905A0932A05B0932B0584E68E
:1035800090E0A0E0B0E080932C0590932D05A093EF
:103590002E05B0932F05D093300580EA9FE0A0E080
:1035A000B0E08093310590933205A0933305B0933A
:1035B000340561E08DE00E942906E5E4F3E0E49142
:1035C000E0933805EFEFF2E0E491F0E0EE0FFF1F3B
:1035D000E254FD4F8591949190933A05809339057B
:1035E000C0933505109237051092360510921805D4
:1035F0001092190510921A0510921B0588E195E0AA
:10360000DF91CF910C94E810CF93DF93CDB7DEB765
:1036100028970FB6F894DEBF0FBECDBF789484B55F
:10362000826084BD84B5816084BD85B5826085BDBE
:1036300085B5816085BD80916E00816080936E004C
:10364000109281008091810082608093810080913E
:1036500081008160809381008091800081608093EF
:1036600080008091B10084608093B1008091B000AF
:1036700081608093B000809191008260809391007E
:103680008091910081608093910080919000816091
:10369000809390008091A10082608093A10080912E
:1036A000A10081608093A1008091A000816080933F
:1036B000A0008091210182608093210180912101ED
:1036C000816080932101809120018160809320019D
:1036D00080917A00846080937A0080917A00826081
:1036E00080937A0080917A00816080937A00809143
:1036F0007A00806880937A001092C1000E94C2060E
:103700006093590570935A0580935B0590935C050F
:1037100061E08DE00E94290662E08AE00E942906AD
:10372000E091D803F091D90382E08083E091D40343
:10373000F091D5031082E091D603F091D7038FEC7E
:1037400080831092E003E091DC03F091DD0386E0DA
:103750008083E091DA03F091DB03808180618083D4
:10376000E091DA03F091DB03808188608083E0914F
:10377000DA03F091DB03808180688083E091DA03D3
:10378000F091DB0380818F7D8083E091F804F091DC
:10379000F904138615861486DF011B9633961E9254
:1037A000AE17BF07E1F71092F6041092F70411E08C
:1037B000BE016F5F7F4F8091F8049091F9040E94E1
:1037C0003610882309F45EC067E0CE0101960E949E
:1037D000180798858913ECCF8091F204811127C0D6
:1037E0008091F8049091F9040E94E407BE016F5F94
:1037F0007F4F8091F8049091F9040E94B90740E04E
:1038000064EB8091F8049091F9040E94780780910C
:10381000F8049091F9040E942507082F8091F8047C
:103820009091F9040E94E407002309F48AC10091F1
:10383000F304CE0101960E94A313801718F480911F
:10384000F30404C0CE0101960E94A3138093F304F5
:103850008091F6048F5F8093F6048981883261F04D
:1038600030F4803149F0823209F0A2CF05C08B33A9
:1038700019F0823409F09CCF8091F7048F5F809318
:10388000F70496CF62E080910B050E94290680E341
:1038900098EFAFEFBFEF80930F0590931005A093C3
:1038A0001105B093120520E044E064E189ED94E055
:1038B0000E94AD0461E089ED94E00E94940462E00E
:1038C00089ED94E00E941A088BE39FE10197F1F7DC
:1038D00061E085E00E9468126DE973E089ED94E093
:1038E0000E94F20468EE73E080E090E00E948A0695
:1038F0008091F60490E090935805809357056FE807
:1039000073E088EC93E00E94F20480915705909157
:1039100058050E9418118091550590915605009701
:1039200009F04FD48091570590915805813C2FE1C3
:10393000920728F4880F991F880F991F02C08FEFF4
:103940009FEFAAD3909356058093550589ED94E097
:103950000E94220862E089ED94E00E941A088BE33D
:103960009FE10197F1F76FE773E089ED94E00E9422
:10397000F204609157057091580589ED94E00E941A
:10398000B40F84E592E00E94A21285E799E090933B
:1039900052058093510580914D0590914E05A0915F
:1039A0004F05B09150058093490590934A05A09327
:1039B0004B05B0934C050E945D0D0E945D0D8091FA
:1039C000530590915405029719F084E692E002C0E5
:1039D00080E892E00E94A2120E949F0FBE016F5FDA
:1039E0007F4F8EE00E940512698161608EE00E9427
:1039F000A911BE016F5F7F4F8EE00E9405126981A1
:103A000062608EE00E94A911BE016F5F7F4F8EE061
:103A10000E940512698164608EE00E94A91160E82D
:103A20008BE00E94A91160E88CE00E94A91160E877
:103A30008DE00E94A91160E387E00E94A91160E86F
:103A400088E00E94A91160E889E00E94A91160E85D
:103A50008AE00E94A91168EE73E080E090E00E9485
:103A60008A0689ED94E00E94220889EC94E00E9485
:103A7000E81089EB94E00E94E81089EA94E00E9443
:103A8000E81087E794E09093A5048093A404109233
:103A9000A804109290041092910410929204109233
:103AA000930480E994E00E94E8100091750410915D
:103AB000760401151105C9F30E9465066B017C01AE
:103AC000D80114964D915D916D917C9117978D91D0
:103AD0009D910D90BC91A02D840F951FA61FB71F1F
:103AE000C816D906EA06FB0698F0F801448155810C
:103AF0006681778184179507A607B70728F5448163
:103B0000558166817781C416D506E606F706E0F092
:103B1000F8014481558166817781C416D506E60691
:103B2000F70648F4448155816681778184179507AB
:103B3000A607B70748F4D8011E960D911C911F9750
:103B4000B8CF1093F20473CEF801C086D186E28616
:103B5000F3860484F585E02DC8011995D8011496E3
:103B6000CD92DD92ED92FC921797E5CF40D008F40C
:103B700081E00895E89409C097FB3EF49095809504
:103B8000709561957F4F8F4F9F4F9923A9F0F92F23
:103B900096E9BB279395F695879577956795B795A1
:103BA000F111F8CFFAF4BB0F11F460FF1BC06F5F87
:103BB0007F4F8F4F9F4F16C0882311F096E911C099
:103BC000772321F09EE8872F762F05C0662371F0BA
:103BD00096E8862F70E060E02AF09A95660F771FCE
:103BE000881FDAF7880F9695879597F90895990FAA
:103BF0000008550FAA0BE0E8FEEF16161706E807B7
:103C0000F907C0F012161306E407F50798F0621BD7
:103C1000730B840B950B39F40A2661F0232B242BAC
:103C2000252B21F408950A2609F4A140A6958FEFCB
:103C3000811D811D08950BD078C069D028F06ED009
:103C400018F0952309F05AC05FC01124A2C07ED09D
:103C5000A0F3959FD1F3950F50E0551F629FF0019F
:103C6000729FBB27F00DB11D639FAA27F00DB11DF8
:103C7000AA1F649F6627B00DA11D661F829F222781
:103C8000B00DA11D621F739FB00DA11D621F839F08
:103C9000A00D611D221F749F3327A00D611D231FDE
:103CA000849F600D211D822F762F6A2F11249F572C
:103CB00050408AF0E1F088234AF0EE0FFF1FBB1F4F
:103CC000661F771F881F91505040A9F79E3F5105EE
:103CD00070F014C05EC05F3FECF3983EDCF3869555
:103CE00077956795B795F795E7959F5FC1F7FE2B99
:103CF000880F911D9695879597F9089597F99F6775
:103D000080E870E060E008959FEF80EC0895002463
:103D10000A941616170618060906089500240A9430
:103D200012161306140605060895092E0394000CB6
:103D300011F4882352F0BB0F40F4BF2B11F460FF45
:103D400004C06F5F7F4F8F4F9F4F089557FD90586E
:103D5000440F551F59F05F3F71F04795880F97FB4F
:103D6000991F61F09F3F79F0879508951216130609
:103D70001406551FF2CF4695F1DF08C01616170638
:103D80001806991FF1CF869571056105089408956D
:103D9000E894BB2766277727CB0197F9089509D0C8
:103DA000A59F900DB49F900DA49F800D911D11248F
:103DB0000895A29FB001B39FC001A39F700D811D04
:103DC0001124911DB29F700D811D1124911D089524
:103DD0005058BB27AA270ED0A8CF99DF30F09EDF1E
:103DE00020F031F49F3F11F41EF48ECF0EF4E095D5
:103DF000E7FB84CFE92FAADF80F3BA1762077307C6
:103E00008407950718F071F49EF5C2CF0EF4E09583
:103E10000B2EBA2FA02D0B01B90190010C01CA0184
:103E2000A0011124FF27591B99F0593F50F4503E2F
:103E300068F11A16F040A22F232F342F4427585F21
:103E4000F3CF469537952795A795F0405395C9F739
:103E50007EF41F16BA0B620B730B840BBAF09150F1
:103E6000A1F0FF0FBB1F661F771F881FC2F70EC090
:103E7000BA0F621F731F841F48F487957795679563
:103E8000B795F7959E3F08F0B3CF9395880F08F04C
:103E90009927EE0F9795879508950CD046CF3EDF72
:103EA00040F035DF30F021F45F3F19F027CF51119A
:103EB00070CF2ACF4BDF98F39923C9F35523B1F381
:103EC000951B550BBB27AA2762177307840738F089
:103ED0009F5F5F4F220F331F441FAA1FA9F333D0E8
:103EE0000E2E3AF0E0E830D091505040E695001C9C
:103EF000CAF729D0FE2F27D0660F771F881FBB1F58
:103F0000261737074807AB07B0E809F0BB0B802D31
:103F1000BF01FF2793585F4F2AF09E3F510568F07D
:103F2000EDCE37CF5F3FECF3983EDCF38695779587
:103F30006795B795F7959F5FC9F7880F911D96957F
:103F4000879597F90895E1E0660F771F881FBB1FDB
:103F5000621773078407BA0720F0621B730B840B88
:103F6000BA0BEE1F88F7E0950895F8DE88F09F57AA
:103F700090F0B92F9927B751A0F0D1F0660F771FB5
:103F8000881F991F1AF0BA95C9F712C0B13081F095
:103F9000FFDEB1E00895FCCE672F782F8827B85F49
:103FA00039F0B93FCCF3869577956795B395D9F7F6
:103FB0003EF490958095709561957F4F8F4F9F4F00
:103FC000089515DE08F48FEF089511DE880B990B24
:103FD0000895991B79E004C0991F961708F0961B65
:103FE000881F7A95C9F78095089597FB072E16F4D8
:103FF000009406D077FD08D03BD007FC05D03EF4F6
:10400000909581959F4F0895709561957F4F089584
:10401000A1E21A2EAA1BBB1BFD010DC0AA1FBB1FCC
:10402000EE1FFF1FA217B307E407F50720F0A21B3E
:10403000B30BE40BF50B661F771F881F991F1A94AB
:1040400069F760957095809590959B01AC01BD01D5
:10405000CF010895EE0FFF1F881F8BBF0790F691C9
:10406000E02D1994B7FF9BCE9ADE821B930B089527
:10407000AA1BBB1B51E107C0AA1FBB1FA617B7078E
:1040800010F0A61BB70B881F991F5A95A9F78095AA
:104090009095BC01CD010895CF93DF9382309105B7
:1040A00010F482E090E0E0918505F091860520E033
:1040B00030E0C0E0D0E0309711F1408151814817E5
:1040C0005907C0F04817590761F4828193812097FE
:1040D00019F09B838A832BC0909386058093850576
:1040E00026C02115310519F04217530718F49A011B
:1040F000BE01DF01EF010280F381E02DDCCF21154D
:10410000310509F1281B390B2430310590F4129642
:104110008D919C9113976115710521F0FB0193839B
:10412000828304C09093860580938505FD013296B5
:1041300044C0FD01E20FF31F819391932250310996
:104140002D933C933AC02091830530918405232B15
:1041500041F42091030230910402309384052093AE
:10416000830520910102309102022115310541F4AD
:104170002DB73EB74091050250910602241B350B26
:10418000E0918305F0918405E217F307A0F42E1B5C
:104190003F0B2817390778F0AC014E5F5F4F2417AB
:1041A000350748F04E0F5F1F5093840540938305F9
:1041B0008193919302C0E0E0F0E0CF01DF91CF91D5
:1041C00008950F931F93CF93DF93009709F48CC04A
:1041D000FC013297138212820091850510918605A9
:1041E0000115110581F420813181820F931F2091E7
:1041F0008305309184052817390779F5F0938405F4
:10420000E093830571C0D80140E050E0AE17BF07CE
:1042100050F412962D913C911397AD012115310563
:1042200009F1D901F3CF9D01DA0133832283608143
:104230007181860F971F8217930769F4EC0128811B
:104240003981260F371F2E5F3F4F318320838A81AC
:104250009B8193838283452B29F4F0938605E09319
:10426000850542C01396FC93EE931297ED01499198
:1042700059919E01240F351FE217F30771F48081D5
:104280009181840F951F029611969C938E93828143
:10429000938113969C938E931297E0E0F0E0D801FF
:1042A00012968D919C911397009719F0F8018C014B
:1042B000F6CF8D919C9198012E5F3F4F820F931FF7
:1042C00020918305309184052817390769F43097C8
:1042D00029F4109286051092850502C0138212827D
:1042E0001093840500938305DF91CF911F910F9167
:1042F000089581E090E0F894C9C20F931F93CF9383
:10430000DF93CDB7DEB72E970FB6F894DEBF0FBEA2
:10431000CDBF0E891F8986E08C831A8309838FEFB6
:104320009FE79E838D83AE01465E5F4F688D798DDA
:10433000CE01019611D02F813885F801E20FF31FCD
:1043400010822E960FB6F894DEBF0FBECDBFDF9160
:10435000CF911F910F9108952F923F924F925F92AC
:104360006F927F928F929F92AF92BF92CF92DF9285
:10437000EF92FF920F931F93CF93DF93CDB7DEB7EA
:104380002C970FB6F894DEBF0FBECDBF7C016B013A
:104390008A01FC0117821682838181FFB0C1CE01A0
:1043A00001964C01F7019381F60193FD859193FFEE
:1043B00081916F01882309F49EC1853239F493FD00
:1043C000859193FF81916F01853221F4B70190E0CF
:1043D000C7D1E8CF512C312C20E02032A0F48B3211
:1043E00069F030F4803259F0833269F420612CC0D6
:1043F0008D3239F0803339F4216026C02260246088
:1044000023C0286021C027FD27C030ED380F3A3087
:1044100078F426FF06C0FAE05F9E300D1124532E7B
:1044200013C08AE0389E300D1124332E20620CC058
:104430008E3221F426FD5FC1206406C08C3611F453
:10444000206802C0883641F4F60193FD859193FF00
:1044500081916F018111C1CF982F9F7D9554933029
:1044600028F40C5F1F4FFFE3F9830DC0833631F052
:10447000833771F0833509F057C021C0F80180817E
:1044800089830E5F1F4F44244394512C540114C060
:104490003801F2E06F0E711CF801A080B18026FF98
:1044A00003C0652D70E002C06FEF7FEFC5012C8760
:1044B0004CD12C0183012C852F77222E16C0380178
:1044C000F2E06F0E711CF801A080B18026FF03C0DE
:1044D000652D70E002C06FEF7FEFC5012C872AD1F8
:1044E0002C012C852068222E830123FC19C0832DEA
:1044F00090E048165906A0F4B70180E290E030D170
:104500003A94F5CFF50127FC859127FE81915F0153
:10451000B70190E025D131103A94F1E04F1A5108DB
:104520004114510479F7DEC0843611F0893631F533
:10453000F80127FF07C060817181828193810C5F40
:104540001F4F08C060817181072E000C880B990BEA
:104550000E5F1F4F2F76722E97FF09C090958095A2
:10456000709561957F4F8F4F9F4F2068722E2AE084
:1045700030E0A4012DD1A82EA81843C0853729F416
:104580002F7EB22E2AE030E025C0F22FF97FBF2E19
:104590008F36C1F018F4883579F0ADC0803719F046
:1045A000883721F0A8C02F2F2061B22EB4FE0DC095
:1045B0008B2D8460B82E09C024FF0AC09F2F9660FF
:1045C000B92E06C028E030E005C020E130E002C08E
:1045D00020E132E0F801B7FE07C06081718182817D
:1045E00093810C5F1F4F06C06081718180E090E075
:1045F0000E5F1F4FA401ECD0A82EA818FB2DFF774B
:104600007F2E76FE0BC0372D3E7FA51450F474FE2E
:104610000AC072FC08C0372D3E7E05C0BA2C372D6B
:1046200003C0BA2C01C0B52C34FF0DC0FE01EA0D49
:10463000F11D8081803311F4397E09C032FF06C03C
:10464000B394B39404C0832F867809F0B39433FDF8
:1046500012C030FF06C05A2CB31418F4530C5B1868
:10466000B32CB31460F4B70180E290E03C8778D0BB
:10467000B3943C85F6CFB31410F43B1801C0312C31
:1046800034FF11C0B70180E390E03C8769D03C85DE
:1046900032FF16C031FD03C088E790E002C088E514
:1046A00090E0B7010CC0832F867851F031FF02C033
:1046B0008BE201C080E237FD8DE2B70190E050D07F
:1046C000A51430F4B70180E390E04AD05A94F8CFB3
:1046D000AA94F401EA0DF11D8081B70190E040D069
:1046E000A110F6CF332009F45DCEB70180E290E04F
:1046F00037D03A94F7CFF7018681978102C08FEFC8
:104700009FEF2C960FB6F894DEBF0FBECDBFDF91A2
:10471000CF911F910F91FF90EF90DF90CF90BF90BE
:10472000AF909F908F907F906F905F904F903F9051
:104730002F900895FC010590615070400110D8F74A
:10474000809590958E0F9F1F0895FC0161507040D9
:1047500001900110D8F7809590958E0F9F1F0895B6
:104760000F931F93CF93DF93FB01238121FD03C0A0
:104770008FEF9FEF28C022FF16C04681578124810A
:1047800035814217530744F4A081B1819D012F5F09
:104790003F4F318320838C93268137812F5F3F4F9A
:1047A0003783268310C0EB01092F182F0084F18571
:1047B000E02D1995892BE1F68E819F8101969F83CB
:1047C0008E83812F902FDF91CF911F910F910895AC
:1047D000FA01AA27283051F1203181F1E8946F9332
:1047E0006E7F6E5F7F4F8F4F9F4FAF4FB1E03ED0D8
:1047F000B4E03CD0670F781F891F9A1FA11D680F76
:10480000791F8A1F911DA11D6A0F711D811D911DA8
:10481000A11D20D009F468943F912AE0269F11241D
:104820003019305D3193DEF6CF010895462F477081
:10483000405D4193B3E00FD0C9F7F6CF462F4F70DC
:10484000405D4A3318F0495D31FD4052419302D03A
:10485000A9F7EACFB4E0A6959795879577956795E0
:10486000BA95C9F700976105710508959B01AC01E0
:104870000A2E06945795479537952795BA95C9F707
:10488000620F731F841F951FA01D0895F894FFCF1A
:10489000FF0000870580001F1C1F1E1F1E1F1F1EFC
:1048A0001F1E1F00000000AE021C024702F4027827
:1048B0000256026A0200000000B8088908E7085D95
:1048C0000881086D085E0800000000B7031C02E7BD
:1048D00008E608AD04A303940475045E00BC0077E9
:1048E000010D0A005365747570204453333233311F
:1048F00052544300556E61626C6520746F20737969
:104900006E63207769746820746865205254430090
:104910005254432068617320736574207468652065
:1049200073797374656D2074696D65006E616E00D6
:10493000696E66006F766600253032642E2530324F
:10494000642E253034642020253032643A253032FC
:10495000643A2530326400727463416C61726D5048
:10496000696E20202000416C61726D31207374618A
:10497000747573202000416C61726D322073746114
:0649800074757320200095
:00000001FF
